{
  "_format": "hh-sol-artifact-1",
  "contractName": "DAONFT",
  "sourceName": "contracts/DAONFT.sol",
  "abi": [
    {
      "inputs": [
        {
          "internalType": "address",
          "name": "_governanceToken",
          "type": "address"
        }
      ],
      "stateMutability": "nonpayable",
      "type": "constructor"
    },
    {
      "inputs": [
        {
          "internalType": "address",
          "name": "sender",
          "type": "address"
        },
        {
          "internalType": "uint256",
          "name": "tokenId",
          "type": "uint256"
        },
        {
          "internalType": "address",
          "name": "owner",
          "type": "address"
        }
      ],
      "name": "ERC721IncorrectOwner",
      "type": "error"
    },
    {
      "inputs": [
        {
          "internalType": "address",
          "name": "operator",
          "type": "address"
        },
        {
          "internalType": "uint256",
          "name": "tokenId",
          "type": "uint256"
        }
      ],
      "name": "ERC721InsufficientApproval",
      "type": "error"
    },
    {
      "inputs": [
        {
          "internalType": "address",
          "name": "approver",
          "type": "address"
        }
      ],
      "name": "ERC721InvalidApprover",
      "type": "error"
    },
    {
      "inputs": [
        {
          "internalType": "address",
          "name": "operator",
          "type": "address"
        }
      ],
      "name": "ERC721InvalidOperator",
      "type": "error"
    },
    {
      "inputs": [
        {
          "internalType": "address",
          "name": "owner",
          "type": "address"
        }
      ],
      "name": "ERC721InvalidOwner",
      "type": "error"
    },
    {
      "inputs": [
        {
          "internalType": "address",
          "name": "receiver",
          "type": "address"
        }
      ],
      "name": "ERC721InvalidReceiver",
      "type": "error"
    },
    {
      "inputs": [
        {
          "internalType": "address",
          "name": "sender",
          "type": "address"
        }
      ],
      "name": "ERC721InvalidSender",
      "type": "error"
    },
    {
      "inputs": [
        {
          "internalType": "uint256",
          "name": "tokenId",
          "type": "uint256"
        }
      ],
      "name": "ERC721NonexistentToken",
      "type": "error"
    },
    {
      "anonymous": false,
      "inputs": [
        {
          "indexed": true,
          "internalType": "address",
          "name": "owner",
          "type": "address"
        },
        {
          "indexed": true,
          "internalType": "address",
          "name": "approved",
          "type": "address"
        },
        {
          "indexed": true,
          "internalType": "uint256",
          "name": "tokenId",
          "type": "uint256"
        }
      ],
      "name": "Approval",
      "type": "event"
    },
    {
      "anonymous": false,
      "inputs": [
        {
          "indexed": true,
          "internalType": "address",
          "name": "owner",
          "type": "address"
        },
        {
          "indexed": true,
          "internalType": "address",
          "name": "operator",
          "type": "address"
        },
        {
          "indexed": false,
          "internalType": "bool",
          "name": "approved",
          "type": "bool"
        }
      ],
      "name": "ApprovalForAll",
      "type": "event"
    },
    {
      "anonymous": false,
      "inputs": [
        {
          "indexed": true,
          "internalType": "uint256",
          "name": "tokenId",
          "type": "uint256"
        },
        {
          "indexed": false,
          "internalType": "string",
          "name": "tokenURI",
          "type": "string"
        },
        {
          "indexed": false,
          "internalType": "address",
          "name": "owner",
          "type": "address"
        }
      ],
      "name": "NFTMinted",
      "type": "event"
    },
    {
      "anonymous": false,
      "inputs": [
        {
          "indexed": true,
          "internalType": "uint256",
          "name": "proposalId",
          "type": "uint256"
        },
        {
          "indexed": false,
          "internalType": "string",
          "name": "tokenURI",
          "type": "string"
        },
        {
          "indexed": false,
          "internalType": "address",
          "name": "proposer",
          "type": "address"
        }
      ],
      "name": "NFTProposed",
      "type": "event"
    },
    {
      "anonymous": false,
      "inputs": [
        {
          "indexed": true,
          "internalType": "address",
          "name": "from",
          "type": "address"
        },
        {
          "indexed": true,
          "internalType": "address",
          "name": "to",
          "type": "address"
        },
        {
          "indexed": true,
          "internalType": "uint256",
          "name": "tokenId",
          "type": "uint256"
        }
      ],
      "name": "Transfer",
      "type": "event"
    },
    {
      "anonymous": false,
      "inputs": [
        {
          "indexed": true,
          "internalType": "uint256",
          "name": "proposalId",
          "type": "uint256"
        },
        {
          "indexed": true,
          "internalType": "address",
          "name": "voter",
          "type": "address"
        },
        {
          "indexed": false,
          "internalType": "string",
          "name": "tokenURI",
          "type": "string"
        }
      ],
      "name": "Voted",
      "type": "event"
    },
    {
      "inputs": [
        {
          "internalType": "address",
          "name": "to",
          "type": "address"
        },
        {
          "internalType": "uint256",
          "name": "tokenId",
          "type": "uint256"
        }
      ],
      "name": "approve",
      "outputs": [],
      "stateMutability": "nonpayable",
      "type": "function"
    },
    {
      "inputs": [
        {
          "internalType": "address",
          "name": "owner",
          "type": "address"
        }
      ],
      "name": "balanceOf",
      "outputs": [
        {
          "internalType": "uint256",
          "name": "",
          "type": "uint256"
        }
      ],
      "stateMutability": "view",
      "type": "function"
    },
    {
      "inputs": [
        {
          "internalType": "uint256",
          "name": "tokenId",
          "type": "uint256"
        }
      ],
      "name": "getApproved",
      "outputs": [
        {
          "internalType": "address",
          "name": "",
          "type": "address"
        }
      ],
      "stateMutability": "view",
      "type": "function"
    },
    {
      "inputs": [],
      "name": "getProposeNFT",
      "outputs": [
        {
          "components": [
            {
              "internalType": "string",
              "name": "tokenURI",
              "type": "string"
            },
            {
              "internalType": "address",
              "name": "proposer",
              "type": "address"
            },
            {
              "internalType": "uint256",
              "name": "votes",
              "type": "uint256"
            },
            {
              "internalType": "bool",
              "name": "minted",
              "type": "bool"
            }
          ],
          "internalType": "struct DAONFT.NFTProposal[]",
          "name": "",
          "type": "tuple[]"
        }
      ],
      "stateMutability": "view",
      "type": "function"
    },
    {
      "inputs": [],
      "name": "governanceToken",
      "outputs": [
        {
          "internalType": "contract IERC20",
          "name": "",
          "type": "address"
        }
      ],
      "stateMutability": "view",
      "type": "function"
    },
    {
      "inputs": [
        {
          "internalType": "uint256",
          "name": "",
          "type": "uint256"
        },
        {
          "internalType": "address",
          "name": "",
          "type": "address"
        }
      ],
      "name": "hasVoted",
      "outputs": [
        {
          "internalType": "bool",
          "name": "",
          "type": "bool"
        }
      ],
      "stateMutability": "view",
      "type": "function"
    },
    {
      "inputs": [
        {
          "internalType": "address",
          "name": "owner",
          "type": "address"
        },
        {
          "internalType": "address",
          "name": "operator",
          "type": "address"
        }
      ],
      "name": "isApprovedForAll",
      "outputs": [
        {
          "internalType": "bool",
          "name": "",
          "type": "bool"
        }
      ],
      "stateMutability": "view",
      "type": "function"
    },
    {
      "inputs": [],
      "name": "name",
      "outputs": [
        {
          "internalType": "string",
          "name": "",
          "type": "string"
        }
      ],
      "stateMutability": "view",
      "type": "function"
    },
    {
      "inputs": [
        {
          "internalType": "uint256",
          "name": "",
          "type": "uint256"
        }
      ],
      "name": "nftProposals",
      "outputs": [
        {
          "internalType": "string",
          "name": "tokenURI",
          "type": "string"
        },
        {
          "internalType": "address",
          "name": "proposer",
          "type": "address"
        },
        {
          "internalType": "uint256",
          "name": "votes",
          "type": "uint256"
        },
        {
          "internalType": "bool",
          "name": "minted",
          "type": "bool"
        }
      ],
      "stateMutability": "view",
      "type": "function"
    },
    {
      "inputs": [
        {
          "internalType": "uint256",
          "name": "tokenId",
          "type": "uint256"
        }
      ],
      "name": "ownerOf",
      "outputs": [
        {
          "internalType": "address",
          "name": "",
          "type": "address"
        }
      ],
      "stateMutability": "view",
      "type": "function"
    },
    {
      "inputs": [],
      "name": "proposalCounter",
      "outputs": [
        {
          "internalType": "uint256",
          "name": "",
          "type": "uint256"
        }
      ],
      "stateMutability": "view",
      "type": "function"
    },
    {
      "inputs": [
        {
          "internalType": "string",
          "name": "_tokenURI",
          "type": "string"
        }
      ],
      "name": "proposeNFT",
      "outputs": [],
      "stateMutability": "nonpayable",
      "type": "function"
    },
    {
      "inputs": [],
      "name": "requiredVotes",
      "outputs": [
        {
          "internalType": "uint256",
          "name": "",
          "type": "uint256"
        }
      ],
      "stateMutability": "view",
      "type": "function"
    },
    {
      "inputs": [
        {
          "internalType": "address",
          "name": "from",
          "type": "address"
        },
        {
          "internalType": "address",
          "name": "to",
          "type": "address"
        },
        {
          "internalType": "uint256",
          "name": "tokenId",
          "type": "uint256"
        }
      ],
      "name": "safeTransferFrom",
      "outputs": [],
      "stateMutability": "nonpayable",
      "type": "function"
    },
    {
      "inputs": [
        {
          "internalType": "address",
          "name": "from",
          "type": "address"
        },
        {
          "internalType": "address",
          "name": "to",
          "type": "address"
        },
        {
          "internalType": "uint256",
          "name": "tokenId",
          "type": "uint256"
        },
        {
          "internalType": "bytes",
          "name": "data",
          "type": "bytes"
        }
      ],
      "name": "safeTransferFrom",
      "outputs": [],
      "stateMutability": "nonpayable",
      "type": "function"
    },
    {
      "inputs": [
        {
          "internalType": "address",
          "name": "operator",
          "type": "address"
        },
        {
          "internalType": "bool",
          "name": "approved",
          "type": "bool"
        }
      ],
      "name": "setApprovalForAll",
      "outputs": [],
      "stateMutability": "nonpayable",
      "type": "function"
    },
    {
      "inputs": [
        {
          "internalType": "bytes4",
          "name": "interfaceId",
          "type": "bytes4"
        }
      ],
      "name": "supportsInterface",
      "outputs": [
        {
          "internalType": "bool",
          "name": "",
          "type": "bool"
        }
      ],
      "stateMutability": "view",
      "type": "function"
    },
    {
      "inputs": [],
      "name": "symbol",
      "outputs": [
        {
          "internalType": "string",
          "name": "",
          "type": "string"
        }
      ],
      "stateMutability": "view",
      "type": "function"
    },
    {
      "inputs": [
        {
          "internalType": "uint256",
          "name": "tokenId",
          "type": "uint256"
        }
      ],
      "name": "tokenURI",
      "outputs": [
        {
          "internalType": "string",
          "name": "",
          "type": "string"
        }
      ],
      "stateMutability": "view",
      "type": "function"
    },
    {
      "inputs": [
        {
          "internalType": "address",
          "name": "from",
          "type": "address"
        },
        {
          "internalType": "address",
          "name": "to",
          "type": "address"
        },
        {
          "internalType": "uint256",
          "name": "tokenId",
          "type": "uint256"
        }
      ],
      "name": "transferFrom",
      "outputs": [],
      "stateMutability": "nonpayable",
      "type": "function"
    },
    {
      "inputs": [
        {
          "internalType": "uint256",
          "name": "proposalId",
          "type": "uint256"
        }
      ],
      "name": "voteForNFT",
      "outputs": [],
      "stateMutability": "nonpayable",
      "type": "function"
    }
  ],
  "bytecode": "0x6080604052683635c9adc5dea00000600b5534801561001d57600080fd5b50604051613752380380613752833981810160405281019061003f9190610187565b6040518060400160405280600681526020017f44414f4e465400000000000000000000000000000000000000000000000000008152506040518060400160405280600481526020017f444e46540000000000000000000000000000000000000000000000000000000081525081600090816100ba9190610404565b5080600190816100ca9190610404565b50505080600660006101000a81548173ffffffffffffffffffffffffffffffffffffffff021916908373ffffffffffffffffffffffffffffffffffffffff16021790555060006007819055506000600a81905550506104d6565b600080fd5b600073ffffffffffffffffffffffffffffffffffffffff82169050919050565b600061015482610129565b9050919050565b61016481610149565b811461016f57600080fd5b50565b6000815190506101818161015b565b92915050565b60006020828403121561019d5761019c610124565b5b60006101ab84828501610172565b91505092915050565b600081519050919050565b7f4e487b7100000000000000000000000000000000000000000000000000000000600052604160045260246000fd5b7f4e487b7100000000000000000000000000000000000000000000000000000000600052602260045260246000fd5b6000600282049050600182168061023557607f821691505b602082108103610248576102476101ee565b5b50919050565b60008190508160005260206000209050919050565b60006020601f8301049050919050565b600082821b905092915050565b6000600883026102b07fffffffffffffffffffffffffffffffffffffffffffffffffffffffffffffffff82610273565b6102ba8683610273565b95508019841693508086168417925050509392505050565b6000819050919050565b6000819050919050565b60006103016102fc6102f7846102d2565b6102dc565b6102d2565b9050919050565b6000819050919050565b61031b836102e6565b61032f61032782610308565b848454610280565b825550505050565b600090565b610344610337565b61034f818484610312565b505050565b5b818110156103735761036860008261033c565b600181019050610355565b5050565b601f8211156103b8576103898161024e565b61039284610263565b810160208510156103a1578190505b6103b56103ad85610263565b830182610354565b50505b505050565b600082821c905092915050565b60006103db600019846008026103bd565b1980831691505092915050565b60006103f483836103ca565b9150826002028217905092915050565b61040d826101b4565b67ffffffffffffffff811115610426576104256101bf565b5b610430825461021d565b61043b828285610377565b600060209050601f83116001811461046e576000841561045c578287015190505b61046685826103e8565b8655506104ce565b601f19841661047c8661024e565b60005b828110156104a45784890151825560018201915060208501945060208101905061047f565b868310156104c157848901516104bd601f8916826103ca565b8355505b6001600288020188555050505b505050505050565b61326d806104e56000396000f3fe608060405234801561001057600080fd5b50600436106101375760003560e01c80636352211e116100b8578063a22cb4651161007c578063a22cb46514610363578063b88d4fde1461037f578063bd31a4d81461039b578063c87b56dd146103b9578063e985e9c5146103e9578063f96dae0a1461041957610137565b80636352211e146102ad57806369aecfd7146102dd57806370a08231146102f957806389ba52c41461032957806395d89b411461034557610137565b806323b872dd116100ff57806323b872dd146101f457806342842e0e14610210578063438596321461022c57806354ab95881461025c578063555356ab1461028f57610137565b806301ffc9a71461013c57806306fdde031461016c578063081812fc1461018a578063095ea7b3146101ba5780630c0512e9146101d6575b600080fd5b610156600480360381019061015191906120c3565b610437565b604051610163919061210b565b60405180910390f35b610174610519565b60405161018191906121b6565b60405180910390f35b6101a4600480360381019061019f919061220e565b6105ab565b6040516101b1919061227c565b60405180910390f35b6101d460048036038101906101cf91906122c3565b6105c7565b005b6101de6105dd565b6040516101eb9190612312565b60405180910390f35b61020e6004803603810190610209919061232d565b6105e3565b005b61022a6004803603810190610225919061232d565b6106e5565b005b61024660048036038101906102419190612380565b610705565b604051610253919061210b565b60405180910390f35b6102766004803603810190610271919061220e565b610734565b60405161028694939291906123c0565b60405180910390f35b610297610819565b6040516102a491906125a8565b60405180910390f35b6102c760048036038101906102c2919061220e565b610a63565b6040516102d4919061227c565b60405180910390f35b6102f760048036038101906102f291906126ff565b610a75565b005b610313600480360381019061030e9190612748565b610ba6565b6040516103209190612312565b60405180910390f35b610343600480360381019061033e919061220e565b610c60565b005b61034d610fad565b60405161035a91906121b6565b60405180910390f35b61037d600480360381019061037891906127a1565b61103f565b005b61039960048036038101906103949190612882565b611055565b005b6103a361107a565b6040516103b09190612312565b60405180910390f35b6103d360048036038101906103ce919061220e565b611080565b6040516103e091906121b6565b60405180910390f35b61040360048036038101906103fe9190612905565b6110e9565b604051610410919061210b565b60405180910390f35b61042161117d565b60405161042e91906129a4565b60405180910390f35b60007f80ac58cd000000000000000000000000000000000000000000000000000000007bffffffffffffffffffffffffffffffffffffffffffffffffffffffff1916827bffffffffffffffffffffffffffffffffffffffffffffffffffffffff1916148061050257507f5b5e139f000000000000000000000000000000000000000000000000000000007bffffffffffffffffffffffffffffffffffffffffffffffffffffffff1916827bffffffffffffffffffffffffffffffffffffffffffffffffffffffff1916145b806105125750610511826111a3565b5b9050919050565b606060008054610528906129ee565b80601f0160208091040260200160405190810160405280929190818152602001828054610554906129ee565b80156105a15780601f10610576576101008083540402835291602001916105a1565b820191906000526020600020905b81548152906001019060200180831161058457829003601f168201915b5050505050905090565b60006105b68261120d565b506105c082611295565b9050919050565b6105d982826105d46112d2565b6112da565b5050565b600a5481565b600073ffffffffffffffffffffffffffffffffffffffff168273ffffffffffffffffffffffffffffffffffffffff16036106555760006040517f64a0ae9200000000000000000000000000000000000000000000000000000000815260040161064c919061227c565b60405180910390fd5b600061066983836106646112d2565b6112ec565b90508373ffffffffffffffffffffffffffffffffffffffff168173ffffffffffffffffffffffffffffffffffffffff16146106df578382826040517f64283d7b0000000000000000000000000000000000000000000000000000000081526004016106d693929190612a1f565b60405180910390fd5b50505050565b61070083838360405180602001604052806000815250611055565b505050565b60096020528160005260406000206020528060005260406000206000915091509054906101000a900460ff1681565b6008602052806000526040600020600091509050806000018054610757906129ee565b80601f0160208091040260200160405190810160405280929190818152602001828054610783906129ee565b80156107d05780601f106107a5576101008083540402835291602001916107d0565b820191906000526020600020905b8154815290600101906020018083116107b357829003601f168201915b5050505050908060010160009054906101000a900473ffffffffffffffffffffffffffffffffffffffff16908060020154908060030160009054906101000a900460ff16905084565b60606000600a5467ffffffffffffffff811115610839576108386125d4565b5b60405190808252806020026020018201604052801561087257816020015b61085f612017565b8152602001906001900390816108575790505b50905060005b600a54811015610a5b57600073ffffffffffffffffffffffffffffffffffffffff16600860006001846108ab9190612a85565b815260200190815260200160002060010160009054906101000a900473ffffffffffffffffffffffffffffffffffffffff1673ffffffffffffffffffffffffffffffffffffffff1614610a4e57600860006001836109099190612a85565b8152602001908152602001600020604051806080016040529081600082018054610932906129ee565b80601f016020809104026020016040519081016040528092919081815260200182805461095e906129ee565b80156109ab5780601f10610980576101008083540402835291602001916109ab565b820191906000526020600020905b81548152906001019060200180831161098e57829003601f168201915b505050505081526020016001820160009054906101000a900473ffffffffffffffffffffffffffffffffffffffff1673ffffffffffffffffffffffffffffffffffffffff1673ffffffffffffffffffffffffffffffffffffffff168152602001600282015481526020016003820160009054906101000a900460ff161515151581525050828281518110610a4257610a41612ab9565b5b60200260200101819052505b8080600101915050610878565b508091505090565b6000610a6e8261120d565b9050919050565b600a6000815480929190610a8890612ae8565b919050555060405180608001604052808281526020013373ffffffffffffffffffffffffffffffffffffffff168152602001600081526020016000151581525060086000600a5481526020019081526020016000206000820151816000019081610af29190612cd2565b5060208201518160010160006101000a81548173ffffffffffffffffffffffffffffffffffffffff021916908373ffffffffffffffffffffffffffffffffffffffff1602179055506040820151816002015560608201518160030160006101000a81548160ff021916908315150217905550905050600a547f66fde1e5134898d49de0f081d598cf7d8fba2432595667ac3cbef6dd60dc01158233604051610b9b929190612da4565b60405180910390a250565b60008073ffffffffffffffffffffffffffffffffffffffff168273ffffffffffffffffffffffffffffffffffffffff1603610c195760006040517f89c62b64000000000000000000000000000000000000000000000000000000008152600401610c10919061227c565b60405180910390fd5b600360008373ffffffffffffffffffffffffffffffffffffffff1673ffffffffffffffffffffffffffffffffffffffff168152602001908152602001600020549050919050565b600073ffffffffffffffffffffffffffffffffffffffff166008600083815260200190815260200160002060010160009054906101000a900473ffffffffffffffffffffffffffffffffffffffff1673ffffffffffffffffffffffffffffffffffffffff1603610d05576040517f08c379a0000000000000000000000000000000000000000000000000000000008152600401610cfc90612e20565b60405180910390fd5b6009600082815260200190815260200160002060003373ffffffffffffffffffffffffffffffffffffffff1673ffffffffffffffffffffffffffffffffffffffff16815260200190815260200160002060009054906101000a900460ff1615610da3576040517f08c379a0000000000000000000000000000000000000000000000000000000008152600401610d9a90612e8c565b60405180910390fd5b6000600660009054906101000a900473ffffffffffffffffffffffffffffffffffffffff1673ffffffffffffffffffffffffffffffffffffffff166370a08231336040518263ffffffff1660e01b8152600401610e00919061227c565b602060405180830381865afa158015610e1d573d6000803e3d6000fd5b505050506040513d601f19601f82011682018060405250810190610e419190612ec1565b905060008111610e86576040517f08c379a0000000000000000000000000000000000000000000000000000000008152600401610e7d90612f3a565b60405180910390fd5b80600860008481526020019081526020016000206002016000828254610eac9190612a85565b9250508190555060016009600084815260200190815260200160002060003373ffffffffffffffffffffffffffffffffffffffff1673ffffffffffffffffffffffffffffffffffffffff16815260200190815260200160002060006101000a81548160ff0219169083151502179055503373ffffffffffffffffffffffffffffffffffffffff16827f909b43dcc56d91024768bbc5c8d56441234580b2fd6176844960cbc7218cc0b560086000868152602001908152602001600020600001604051610f789190612fde565b60405180910390a3600b54600860008481526020019081526020016000206002015410610fa957610fa882611506565b5b5050565b606060018054610fbc906129ee565b80601f0160208091040260200160405190810160405280929190818152602001828054610fe8906129ee565b80156110355780601f1061100a57610100808354040283529160200191611035565b820191906000526020600020905b81548152906001019060200180831161101857829003601f168201915b5050505050905090565b61105161104a6112d2565b838361163f565b5050565b6110608484846105e3565b61107461106b6112d2565b858585856117ae565b50505050565b600b5481565b606061108b8261120d565b50600061109661195f565b905060008151116110b657604051806020016040528060008152506110e1565b806110c084611976565b6040516020016110d192919061303c565b6040516020818303038152906040525b915050919050565b6000600560008473ffffffffffffffffffffffffffffffffffffffff1673ffffffffffffffffffffffffffffffffffffffff16815260200190815260200160002060008373ffffffffffffffffffffffffffffffffffffffff1673ffffffffffffffffffffffffffffffffffffffff16815260200190815260200160002060009054906101000a900460ff16905092915050565b600660009054906101000a900473ffffffffffffffffffffffffffffffffffffffff1681565b60007f01ffc9a7000000000000000000000000000000000000000000000000000000007bffffffffffffffffffffffffffffffffffffffffffffffffffffffff1916827bffffffffffffffffffffffffffffffffffffffffffffffffffffffff1916149050919050565b60008061121983611a44565b9050600073ffffffffffffffffffffffffffffffffffffffff168173ffffffffffffffffffffffffffffffffffffffff160361128c57826040517f7e2732890000000000000000000000000000000000000000000000000000000081526004016112839190612312565b60405180910390fd5b80915050919050565b60006004600083815260200190815260200160002060009054906101000a900473ffffffffffffffffffffffffffffffffffffffff169050919050565b600033905090565b6112e78383836001611a81565b505050565b6000806112f884611a44565b9050600073ffffffffffffffffffffffffffffffffffffffff168373ffffffffffffffffffffffffffffffffffffffff161461133a57611339818486611c46565b5b600073ffffffffffffffffffffffffffffffffffffffff168173ffffffffffffffffffffffffffffffffffffffff16146113cb5761137c600085600080611a81565b6001600360008373ffffffffffffffffffffffffffffffffffffffff1673ffffffffffffffffffffffffffffffffffffffff168152602001908152602001600020600082825403925050819055505b600073ffffffffffffffffffffffffffffffffffffffff168573ffffffffffffffffffffffffffffffffffffffff161461144e576001600360008773ffffffffffffffffffffffffffffffffffffffff1673ffffffffffffffffffffffffffffffffffffffff168152602001908152602001600020600082825401925050819055505b846002600086815260200190815260200160002060006101000a81548173ffffffffffffffffffffffffffffffffffffffff021916908373ffffffffffffffffffffffffffffffffffffffff160217905550838573ffffffffffffffffffffffffffffffffffffffff168273ffffffffffffffffffffffffffffffffffffffff167fddf252ad1be2c89b69c2b068fc378daa952ba7f163c4a11628f55a4df523b3ef60405160405180910390a4809150509392505050565b60006008600083815260200190815260200160002090508060030160009054906101000a900460ff161561156f576040517f08c379a0000000000000000000000000000000000000000000000000000000008152600401611566906130ac565b60405180910390fd5b6007600081548092919061158290612ae8565b9190505550600060075490506115bc8260010160009054906101000a900473ffffffffffffffffffffffffffffffffffffffff1682611d0a565b60018260030160006101000a81548160ff021916908315150217905550807f411b345259a1495602cee098e5f501eb3412e0701c10b173ecd8ba7b585974a9836000018460010160009054906101000a900473ffffffffffffffffffffffffffffffffffffffff166040516116329291906130cc565b60405180910390a2505050565b600073ffffffffffffffffffffffffffffffffffffffff168273ffffffffffffffffffffffffffffffffffffffff16036116b057816040517f5b08ba180000000000000000000000000000000000000000000000000000000081526004016116a7919061227c565b60405180910390fd5b80600560008573ffffffffffffffffffffffffffffffffffffffff1673ffffffffffffffffffffffffffffffffffffffff16815260200190815260200160002060008473ffffffffffffffffffffffffffffffffffffffff1673ffffffffffffffffffffffffffffffffffffffff16815260200190815260200160002060006101000a81548160ff0219169083151502179055508173ffffffffffffffffffffffffffffffffffffffff168373ffffffffffffffffffffffffffffffffffffffff167f17307eab39ab6107e8899845ad3d59bd9653f200f220920489ca2b5937696c31836040516117a1919061210b565b60405180910390a3505050565b60008373ffffffffffffffffffffffffffffffffffffffff163b1115611958578273ffffffffffffffffffffffffffffffffffffffff1663150b7a02868685856040518563ffffffff1660e01b815260040161180d9493929190613151565b6020604051808303816000875af192505050801561184957506040513d601f19601f8201168201806040525081019061184691906131b2565b60015b6118cd573d8060008114611879576040519150601f19603f3d011682016040523d82523d6000602084013e61187e565b606091505b5060008151036118c557836040517f64a0ae920000000000000000000000000000000000000000000000000000000081526004016118bc919061227c565b60405180910390fd5b805181602001fd5b63150b7a0260e01b7bffffffffffffffffffffffffffffffffffffffffffffffffffffffff1916817bffffffffffffffffffffffffffffffffffffffffffffffffffffffff19161461195657836040517f64a0ae9200000000000000000000000000000000000000000000000000000000815260040161194d919061227c565b60405180910390fd5b505b5050505050565b606060405180602001604052806000815250905090565b60606000600161198584611e03565b01905060008167ffffffffffffffff8111156119a4576119a36125d4565b5b6040519080825280601f01601f1916602001820160405280156119d65781602001600182028036833780820191505090505b509050600082602001820190505b600115611a39578080600190039150507f3031323334353637383961626364656600000000000000000000000000000000600a86061a8153600a8581611a2d57611a2c6131df565b5b049450600085036119e4575b819350505050919050565b60006002600083815260200190815260200160002060009054906101000a900473ffffffffffffffffffffffffffffffffffffffff169050919050565b8080611aba5750600073ffffffffffffffffffffffffffffffffffffffff168273ffffffffffffffffffffffffffffffffffffffff1614155b15611bee576000611aca8461120d565b9050600073ffffffffffffffffffffffffffffffffffffffff168373ffffffffffffffffffffffffffffffffffffffff1614158015611b3557508273ffffffffffffffffffffffffffffffffffffffff168173ffffffffffffffffffffffffffffffffffffffff1614155b8015611b485750611b4681846110e9565b155b15611b8a57826040517fa9fbf51f000000000000000000000000000000000000000000000000000000008152600401611b81919061227c565b60405180910390fd5b8115611bec57838573ffffffffffffffffffffffffffffffffffffffff168273ffffffffffffffffffffffffffffffffffffffff167f8c5be1e5ebec7d5bd14f71427d1e84f3dd0314c0f7b2291e5b200ac8c7c3b92560405160405180910390a45b505b836004600085815260200190815260200160002060006101000a81548173ffffffffffffffffffffffffffffffffffffffff021916908373ffffffffffffffffffffffffffffffffffffffff16021790555050505050565b611c51838383611f56565b611d0557600073ffffffffffffffffffffffffffffffffffffffff168373ffffffffffffffffffffffffffffffffffffffff1603611cc657806040517f7e273289000000000000000000000000000000000000000000000000000000008152600401611cbd9190612312565b60405180910390fd5b81816040517f177e802f000000000000000000000000000000000000000000000000000000008152600401611cfc92919061320e565b60405180910390fd5b505050565b600073ffffffffffffffffffffffffffffffffffffffff168273ffffffffffffffffffffffffffffffffffffffff1603611d7c5760006040517f64a0ae92000000000000000000000000000000000000000000000000000000008152600401611d73919061227c565b60405180910390fd5b6000611d8a838360006112ec565b9050600073ffffffffffffffffffffffffffffffffffffffff168173ffffffffffffffffffffffffffffffffffffffff1614611dfe5760006040517f73c6ac6e000000000000000000000000000000000000000000000000000000008152600401611df5919061227c565b60405180910390fd5b505050565b600080600090507a184f03e93ff9f4daa797ed6e38ed64bf6a1f0100000000000000008310611e61577a184f03e93ff9f4daa797ed6e38ed64bf6a1f0100000000000000008381611e5757611e566131df565b5b0492506040810190505b6d04ee2d6d415b85acef81000000008310611e9e576d04ee2d6d415b85acef81000000008381611e9457611e936131df565b5b0492506020810190505b662386f26fc100008310611ecd57662386f26fc100008381611ec357611ec26131df565b5b0492506010810190505b6305f5e1008310611ef6576305f5e1008381611eec57611eeb6131df565b5b0492506008810190505b6127108310611f1b576127108381611f1157611f106131df565b5b0492506004810190505b60648310611f3e5760648381611f3457611f336131df565b5b0492506002810190505b600a8310611f4d576001810190505b80915050919050565b60008073ffffffffffffffffffffffffffffffffffffffff168373ffffffffffffffffffffffffffffffffffffffff161415801561200e57508273ffffffffffffffffffffffffffffffffffffffff168473ffffffffffffffffffffffffffffffffffffffff161480611fcf5750611fce84846110e9565b5b8061200d57508273ffffffffffffffffffffffffffffffffffffffff16611ff583611295565b73ffffffffffffffffffffffffffffffffffffffff16145b5b90509392505050565b604051806080016040528060608152602001600073ffffffffffffffffffffffffffffffffffffffff168152602001600081526020016000151581525090565b6000604051905090565b600080fd5b600080fd5b60007fffffffff0000000000000000000000000000000000000000000000000000000082169050919050565b6120a08161206b565b81146120ab57600080fd5b50565b6000813590506120bd81612097565b92915050565b6000602082840312156120d9576120d8612061565b5b60006120e7848285016120ae565b91505092915050565b60008115159050919050565b612105816120f0565b82525050565b600060208201905061212060008301846120fc565b92915050565b600081519050919050565b600082825260208201905092915050565b60005b83811015612160578082015181840152602081019050612145565b60008484015250505050565b6000601f19601f8301169050919050565b600061218882612126565b6121928185612131565b93506121a2818560208601612142565b6121ab8161216c565b840191505092915050565b600060208201905081810360008301526121d0818461217d565b905092915050565b6000819050919050565b6121eb816121d8565b81146121f657600080fd5b50565b600081359050612208816121e2565b92915050565b60006020828403121561222457612223612061565b5b6000612232848285016121f9565b91505092915050565b600073ffffffffffffffffffffffffffffffffffffffff82169050919050565b60006122668261223b565b9050919050565b6122768161225b565b82525050565b6000602082019050612291600083018461226d565b92915050565b6122a08161225b565b81146122ab57600080fd5b50565b6000813590506122bd81612297565b92915050565b600080604083850312156122da576122d9612061565b5b60006122e8858286016122ae565b92505060206122f9858286016121f9565b9150509250929050565b61230c816121d8565b82525050565b60006020820190506123276000830184612303565b92915050565b60008060006060848603121561234657612345612061565b5b6000612354868287016122ae565b9350506020612365868287016122ae565b9250506040612376868287016121f9565b9150509250925092565b6000806040838503121561239757612396612061565b5b60006123a5858286016121f9565b92505060206123b6858286016122ae565b9150509250929050565b600060808201905081810360008301526123da818761217d565b90506123e9602083018661226d565b6123f66040830185612303565b61240360608301846120fc565b95945050505050565b600081519050919050565b600082825260208201905092915050565b6000819050602082019050919050565b600082825260208201905092915050565b600061245482612126565b61245e8185612438565b935061246e818560208601612142565b6124778161216c565b840191505092915050565b61248b8161225b565b82525050565b61249a816121d8565b82525050565b6124a9816120f0565b82525050565b600060808301600083015184820360008601526124cc8282612449565b91505060208301516124e16020860182612482565b5060408301516124f46040860182612491565b50606083015161250760608601826124a0565b508091505092915050565b600061251e83836124af565b905092915050565b6000602082019050919050565b600061253e8261240c565b6125488185612417565b93508360208202850161255a85612428565b8060005b8581101561259657848403895281516125778582612512565b945061258283612526565b925060208a0199505060018101905061255e565b50829750879550505050505092915050565b600060208201905081810360008301526125c28184612533565b905092915050565b600080fd5b600080fd5b7f4e487b7100000000000000000000000000000000000000000000000000000000600052604160045260246000fd5b61260c8261216c565b810181811067ffffffffffffffff8211171561262b5761262a6125d4565b5b80604052505050565b600061263e612057565b905061264a8282612603565b919050565b600067ffffffffffffffff82111561266a576126696125d4565b5b6126738261216c565b9050602081019050919050565b82818337600083830152505050565b60006126a261269d8461264f565b612634565b9050828152602081018484840111156126be576126bd6125cf565b5b6126c9848285612680565b509392505050565b600082601f8301126126e6576126e56125ca565b5b81356126f684826020860161268f565b91505092915050565b60006020828403121561271557612714612061565b5b600082013567ffffffffffffffff81111561273357612732612066565b5b61273f848285016126d1565b91505092915050565b60006020828403121561275e5761275d612061565b5b600061276c848285016122ae565b91505092915050565b61277e816120f0565b811461278957600080fd5b50565b60008135905061279b81612775565b92915050565b600080604083850312156127b8576127b7612061565b5b60006127c6858286016122ae565b92505060206127d78582860161278c565b9150509250929050565b600067ffffffffffffffff8211156127fc576127fb6125d4565b5b6128058261216c565b9050602081019050919050565b6000612825612820846127e1565b612634565b905082815260208101848484011115612841576128406125cf565b5b61284c848285612680565b509392505050565b600082601f830112612869576128686125ca565b5b8135612879848260208601612812565b91505092915050565b6000806000806080858703121561289c5761289b612061565b5b60006128aa878288016122ae565b94505060206128bb878288016122ae565b93505060406128cc878288016121f9565b925050606085013567ffffffffffffffff8111156128ed576128ec612066565b5b6128f987828801612854565b91505092959194509250565b6000806040838503121561291c5761291b612061565b5b600061292a858286016122ae565b925050602061293b858286016122ae565b9150509250929050565b6000819050919050565b600061296a6129656129608461223b565b612945565b61223b565b9050919050565b600061297c8261294f565b9050919050565b600061298e82612971565b9050919050565b61299e81612983565b82525050565b60006020820190506129b96000830184612995565b92915050565b7f4e487b7100000000000000000000000000000000000000000000000000000000600052602260045260246000fd5b60006002820490506001821680612a0657607f821691505b602082108103612a1957612a186129bf565b5b50919050565b6000606082019050612a34600083018661226d565b612a416020830185612303565b612a4e604083018461226d565b949350505050565b7f4e487b7100000000000000000000000000000000000000000000000000000000600052601160045260246000fd5b6000612a90826121d8565b9150612a9b836121d8565b9250828201905080821115612ab357612ab2612a56565b5b92915050565b7f4e487b7100000000000000000000000000000000000000000000000000000000600052603260045260246000fd5b6000612af3826121d8565b91507fffffffffffffffffffffffffffffffffffffffffffffffffffffffffffffffff8203612b2557612b24612a56565b5b600182019050919050565b60008190508160005260206000209050919050565b60006020601f8301049050919050565b600082821b905092915050565b600060088302612b927fffffffffffffffffffffffffffffffffffffffffffffffffffffffffffffffff82612b55565b612b9c8683612b55565b95508019841693508086168417925050509392505050565b6000612bcf612bca612bc5846121d8565b612945565b6121d8565b9050919050565b6000819050919050565b612be983612bb4565b612bfd612bf582612bd6565b848454612b62565b825550505050565b600090565b612c12612c05565b612c1d818484612be0565b505050565b5b81811015612c4157612c36600082612c0a565b600181019050612c23565b5050565b601f821115612c8657612c5781612b30565b612c6084612b45565b81016020851015612c6f578190505b612c83612c7b85612b45565b830182612c22565b50505b505050565b600082821c905092915050565b6000612ca960001984600802612c8b565b1980831691505092915050565b6000612cc28383612c98565b9150826002028217905092915050565b612cdb82612126565b67ffffffffffffffff811115612cf457612cf36125d4565b5b612cfe82546129ee565b612d09828285612c45565b600060209050601f831160018114612d3c5760008415612d2a578287015190505b612d348582612cb6565b865550612d9c565b601f198416612d4a86612b30565b60005b82811015612d7257848901518255600182019150602085019450602081019050612d4d565b86831015612d8f5784890151612d8b601f891682612c98565b8355505b6001600288020188555050505b505050505050565b60006040820190508181036000830152612dbe818561217d565b9050612dcd602083018461226d565b9392505050565b7f50726f706f73616c20646f6573206e6f74206578697374000000000000000000600082015250565b6000612e0a601783612131565b9150612e1582612dd4565b602082019050919050565b60006020820190508181036000830152612e3981612dfd565b9050919050565b7f416c726561647920766f74656400000000000000000000000000000000000000600082015250565b6000612e76600d83612131565b9150612e8182612e40565b602082019050919050565b60006020820190508181036000830152612ea581612e69565b9050919050565b600081519050612ebb816121e2565b92915050565b600060208284031215612ed757612ed6612061565b5b6000612ee584828501612eac565b91505092915050565b7f4e6f20676f7665726e616e636520746f6b656e73000000000000000000000000600082015250565b6000612f24601483612131565b9150612f2f82612eee565b602082019050919050565b60006020820190508181036000830152612f5381612f17565b9050919050565b60008154612f67816129ee565b612f718186612131565b94506001821660008114612f8c5760018114612fa257612fd5565b60ff198316865281151560200286019350612fd5565b612fab85612b30565b60005b83811015612fcd57815481890152600182019150602081019050612fae565b808801955050505b50505092915050565b60006020820190508181036000830152612ff88184612f5a565b905092915050565b600081905092915050565b600061301682612126565b6130208185613000565b9350613030818560208601612142565b80840191505092915050565b6000613048828561300b565b9150613054828461300b565b91508190509392505050565b7f416c7265616479206d696e746564000000000000000000000000000000000000600082015250565b6000613096600e83612131565b91506130a182613060565b602082019050919050565b600060208201905081810360008301526130c581613089565b9050919050565b600060408201905081810360008301526130e68185612f5a565b90506130f5602083018461226d565b9392505050565b600081519050919050565b600082825260208201905092915050565b6000613123826130fc565b61312d8185613107565b935061313d818560208601612142565b6131468161216c565b840191505092915050565b6000608082019050613166600083018761226d565b613173602083018661226d565b6131806040830185612303565b81810360608301526131928184613118565b905095945050505050565b6000815190506131ac81612097565b92915050565b6000602082840312156131c8576131c7612061565b5b60006131d68482850161319d565b91505092915050565b7f4e487b7100000000000000000000000000000000000000000000000000000000600052601260045260246000fd5b6000604082019050613223600083018561226d565b6132306020830184612303565b939250505056fea264697066735822122007d02350e4d7abbaef62c1bb38e92967841acd4a185e2bf434fa1b0e208371fd64736f6c634300081d0033",
  "linkReferences": {},
  "deployedLinkReferences": {}
}