{
  "_format": "hh-sol-artifact-1",
  "contractName": "DAONFT",
  "sourceName": "contracts/DAONFT.sol",
  "abi": [
    {
      "inputs": [
        {
          "internalType": "address",
          "name": "_governanceToken",
          "type": "address"
        },
        {
          "internalType": "address",
          "name": "_paymentToken",
          "type": "address"
        }
      ],
      "stateMutability": "nonpayable",
      "type": "constructor"
    },
    {
      "inputs": [
        {
          "internalType": "address",
          "name": "sender",
          "type": "address"
        },
        {
          "internalType": "uint256",
          "name": "tokenId",
          "type": "uint256"
        },
        {
          "internalType": "address",
          "name": "owner",
          "type": "address"
        }
      ],
      "name": "ERC721IncorrectOwner",
      "type": "error"
    },
    {
      "inputs": [
        {
          "internalType": "address",
          "name": "operator",
          "type": "address"
        },
        {
          "internalType": "uint256",
          "name": "tokenId",
          "type": "uint256"
        }
      ],
      "name": "ERC721InsufficientApproval",
      "type": "error"
    },
    {
      "inputs": [
        {
          "internalType": "address",
          "name": "approver",
          "type": "address"
        }
      ],
      "name": "ERC721InvalidApprover",
      "type": "error"
    },
    {
      "inputs": [
        {
          "internalType": "address",
          "name": "operator",
          "type": "address"
        }
      ],
      "name": "ERC721InvalidOperator",
      "type": "error"
    },
    {
      "inputs": [
        {
          "internalType": "address",
          "name": "owner",
          "type": "address"
        }
      ],
      "name": "ERC721InvalidOwner",
      "type": "error"
    },
    {
      "inputs": [
        {
          "internalType": "address",
          "name": "receiver",
          "type": "address"
        }
      ],
      "name": "ERC721InvalidReceiver",
      "type": "error"
    },
    {
      "inputs": [
        {
          "internalType": "address",
          "name": "sender",
          "type": "address"
        }
      ],
      "name": "ERC721InvalidSender",
      "type": "error"
    },
    {
      "inputs": [
        {
          "internalType": "uint256",
          "name": "tokenId",
          "type": "uint256"
        }
      ],
      "name": "ERC721NonexistentToken",
      "type": "error"
    },
    {
      "anonymous": false,
      "inputs": [
        {
          "indexed": true,
          "internalType": "address",
          "name": "owner",
          "type": "address"
        },
        {
          "indexed": true,
          "internalType": "address",
          "name": "approved",
          "type": "address"
        },
        {
          "indexed": true,
          "internalType": "uint256",
          "name": "tokenId",
          "type": "uint256"
        }
      ],
      "name": "Approval",
      "type": "event"
    },
    {
      "anonymous": false,
      "inputs": [
        {
          "indexed": true,
          "internalType": "address",
          "name": "owner",
          "type": "address"
        },
        {
          "indexed": true,
          "internalType": "address",
          "name": "operator",
          "type": "address"
        },
        {
          "indexed": false,
          "internalType": "bool",
          "name": "approved",
          "type": "bool"
        }
      ],
      "name": "ApprovalForAll",
      "type": "event"
    },
    {
      "anonymous": false,
      "inputs": [
        {
          "indexed": true,
          "internalType": "uint256",
          "name": "tokenId",
          "type": "uint256"
        },
        {
          "indexed": true,
          "internalType": "address",
          "name": "owner",
          "type": "address"
        },
        {
          "indexed": false,
          "internalType": "uint256",
          "name": "price",
          "type": "uint256"
        }
      ],
      "name": "NFTInSale",
      "type": "event"
    },
    {
      "anonymous": false,
      "inputs": [
        {
          "indexed": true,
          "internalType": "uint256",
          "name": "tokenId",
          "type": "uint256"
        },
        {
          "indexed": false,
          "internalType": "string",
          "name": "tokenURI",
          "type": "string"
        },
        {
          "indexed": false,
          "internalType": "address",
          "name": "owner",
          "type": "address"
        }
      ],
      "name": "NFTMinted",
      "type": "event"
    },
    {
      "anonymous": false,
      "inputs": [
        {
          "indexed": true,
          "internalType": "uint256",
          "name": "proposalId",
          "type": "uint256"
        },
        {
          "indexed": false,
          "internalType": "string",
          "name": "tokenURI",
          "type": "string"
        },
        {
          "indexed": false,
          "internalType": "address",
          "name": "proposer",
          "type": "address"
        }
      ],
      "name": "NFTProposed",
      "type": "event"
    },
    {
      "anonymous": false,
      "inputs": [
        {
          "indexed": true,
          "internalType": "uint256",
          "name": "tokenId",
          "type": "uint256"
        },
        {
          "indexed": true,
          "internalType": "address",
          "name": "buyer",
          "type": "address"
        },
        {
          "indexed": false,
          "internalType": "uint256",
          "name": "price",
          "type": "uint256"
        }
      ],
      "name": "NFTSold",
      "type": "event"
    },
    {
      "anonymous": false,
      "inputs": [
        {
          "indexed": true,
          "internalType": "address",
          "name": "from",
          "type": "address"
        },
        {
          "indexed": true,
          "internalType": "address",
          "name": "to",
          "type": "address"
        },
        {
          "indexed": true,
          "internalType": "uint256",
          "name": "tokenId",
          "type": "uint256"
        }
      ],
      "name": "Transfer",
      "type": "event"
    },
    {
      "anonymous": false,
      "inputs": [
        {
          "indexed": true,
          "internalType": "uint256",
          "name": "proposalId",
          "type": "uint256"
        },
        {
          "indexed": true,
          "internalType": "address",
          "name": "voter",
          "type": "address"
        },
        {
          "indexed": false,
          "internalType": "string",
          "name": "tokenURI",
          "type": "string"
        },
        {
          "indexed": false,
          "internalType": "uint256",
          "name": "amount",
          "type": "uint256"
        }
      ],
      "name": "Voted",
      "type": "event"
    },
    {
      "inputs": [
        {
          "internalType": "address",
          "name": "to",
          "type": "address"
        },
        {
          "internalType": "uint256",
          "name": "tokenId",
          "type": "uint256"
        }
      ],
      "name": "approve",
      "outputs": [],
      "stateMutability": "nonpayable",
      "type": "function"
    },
    {
      "inputs": [
        {
          "internalType": "address",
          "name": "owner",
          "type": "address"
        }
      ],
      "name": "balanceOf",
      "outputs": [
        {
          "internalType": "uint256",
          "name": "",
          "type": "uint256"
        }
      ],
      "stateMutability": "view",
      "type": "function"
    },
    {
      "inputs": [
        {
          "internalType": "uint256",
          "name": "tokenId",
          "type": "uint256"
        }
      ],
      "name": "buyNFT",
      "outputs": [],
      "stateMutability": "nonpayable",
      "type": "function"
    },
    {
      "inputs": [
        {
          "internalType": "uint256",
          "name": "tokenId",
          "type": "uint256"
        }
      ],
      "name": "getApproved",
      "outputs": [
        {
          "internalType": "address",
          "name": "",
          "type": "address"
        }
      ],
      "stateMutability": "view",
      "type": "function"
    },
    {
      "inputs": [],
      "name": "getProposeNFT",
      "outputs": [
        {
          "components": [
            {
              "internalType": "string",
              "name": "tokenURI",
              "type": "string"
            },
            {
              "internalType": "address",
              "name": "proposer",
              "type": "address"
            },
            {
              "internalType": "uint256",
              "name": "votes",
              "type": "uint256"
            },
            {
              "internalType": "bool",
              "name": "minted",
              "type": "bool"
            }
          ],
          "internalType": "struct DAONFT.NFTProposal[]",
          "name": "",
          "type": "tuple[]"
        }
      ],
      "stateMutability": "view",
      "type": "function"
    },
    {
      "inputs": [],
      "name": "governanceToken",
      "outputs": [
        {
          "internalType": "contract IERC20",
          "name": "",
          "type": "address"
        }
      ],
      "stateMutability": "view",
      "type": "function"
    },
    {
      "inputs": [
        {
          "internalType": "uint256",
          "name": "",
          "type": "uint256"
        },
        {
          "internalType": "address",
          "name": "",
          "type": "address"
        }
      ],
      "name": "hasVoted",
      "outputs": [
        {
          "internalType": "bool",
          "name": "",
          "type": "bool"
        }
      ],
      "stateMutability": "view",
      "type": "function"
    },
    {
      "inputs": [
        {
          "internalType": "address",
          "name": "owner",
          "type": "address"
        },
        {
          "internalType": "address",
          "name": "operator",
          "type": "address"
        }
      ],
      "name": "isApprovedForAll",
      "outputs": [
        {
          "internalType": "bool",
          "name": "",
          "type": "bool"
        }
      ],
      "stateMutability": "view",
      "type": "function"
    },
    {
      "inputs": [],
      "name": "mintNFT",
      "outputs": [],
      "stateMutability": "nonpayable",
      "type": "function"
    },
    {
      "inputs": [],
      "name": "name",
      "outputs": [
        {
          "internalType": "string",
          "name": "",
          "type": "string"
        }
      ],
      "stateMutability": "view",
      "type": "function"
    },
    {
      "inputs": [
        {
          "internalType": "uint256",
          "name": "",
          "type": "uint256"
        }
      ],
      "name": "nftProposals",
      "outputs": [
        {
          "internalType": "string",
          "name": "tokenURI",
          "type": "string"
        },
        {
          "internalType": "address",
          "name": "proposer",
          "type": "address"
        },
        {
          "internalType": "uint256",
          "name": "votes",
          "type": "uint256"
        },
        {
          "internalType": "bool",
          "name": "minted",
          "type": "bool"
        }
      ],
      "stateMutability": "view",
      "type": "function"
    },
    {
      "inputs": [
        {
          "internalType": "uint256",
          "name": "",
          "type": "uint256"
        }
      ],
      "name": "nftSales",
      "outputs": [
        {
          "internalType": "uint256",
          "name": "tokenId",
          "type": "uint256"
        },
        {
          "internalType": "address",
          "name": "owner",
          "type": "address"
        },
        {
          "internalType": "uint256",
          "name": "price",
          "type": "uint256"
        },
        {
          "internalType": "bool",
          "name": "sold",
          "type": "bool"
        }
      ],
      "stateMutability": "view",
      "type": "function"
    },
    {
      "inputs": [
        {
          "internalType": "uint256",
          "name": "tokenId",
          "type": "uint256"
        }
      ],
      "name": "ownerOf",
      "outputs": [
        {
          "internalType": "address",
          "name": "",
          "type": "address"
        }
      ],
      "stateMutability": "view",
      "type": "function"
    },
    {
      "inputs": [],
      "name": "paymentToken",
      "outputs": [
        {
          "internalType": "contract IERC20",
          "name": "",
          "type": "address"
        }
      ],
      "stateMutability": "view",
      "type": "function"
    },
    {
      "inputs": [],
      "name": "proposalCounter",
      "outputs": [
        {
          "internalType": "uint256",
          "name": "",
          "type": "uint256"
        }
      ],
      "stateMutability": "view",
      "type": "function"
    },
    {
      "inputs": [
        {
          "internalType": "string",
          "name": "_tokenURI",
          "type": "string"
        }
      ],
      "name": "proposeNFT",
      "outputs": [],
      "stateMutability": "nonpayable",
      "type": "function"
    },
    {
      "inputs": [],
      "name": "requiredVotes",
      "outputs": [
        {
          "internalType": "uint256",
          "name": "",
          "type": "uint256"
        }
      ],
      "stateMutability": "view",
      "type": "function"
    },
    {
      "inputs": [
        {
          "internalType": "address",
          "name": "from",
          "type": "address"
        },
        {
          "internalType": "address",
          "name": "to",
          "type": "address"
        },
        {
          "internalType": "uint256",
          "name": "tokenId",
          "type": "uint256"
        }
      ],
      "name": "safeTransferFrom",
      "outputs": [],
      "stateMutability": "nonpayable",
      "type": "function"
    },
    {
      "inputs": [
        {
          "internalType": "address",
          "name": "from",
          "type": "address"
        },
        {
          "internalType": "address",
          "name": "to",
          "type": "address"
        },
        {
          "internalType": "uint256",
          "name": "tokenId",
          "type": "uint256"
        },
        {
          "internalType": "bytes",
          "name": "data",
          "type": "bytes"
        }
      ],
      "name": "safeTransferFrom",
      "outputs": [],
      "stateMutability": "nonpayable",
      "type": "function"
    },
    {
      "inputs": [
        {
          "internalType": "uint256",
          "name": "tokenId",
          "type": "uint256"
        },
        {
          "internalType": "uint256",
          "name": "price",
          "type": "uint256"
        }
      ],
      "name": "sellNFT",
      "outputs": [],
      "stateMutability": "nonpayable",
      "type": "function"
    },
    {
      "inputs": [
        {
          "internalType": "address",
          "name": "operator",
          "type": "address"
        },
        {
          "internalType": "bool",
          "name": "approved",
          "type": "bool"
        }
      ],
      "name": "setApprovalForAll",
      "outputs": [],
      "stateMutability": "nonpayable",
      "type": "function"
    },
    {
      "inputs": [
        {
          "internalType": "bytes4",
          "name": "interfaceId",
          "type": "bytes4"
        }
      ],
      "name": "supportsInterface",
      "outputs": [
        {
          "internalType": "bool",
          "name": "",
          "type": "bool"
        }
      ],
      "stateMutability": "view",
      "type": "function"
    },
    {
      "inputs": [],
      "name": "symbol",
      "outputs": [
        {
          "internalType": "string",
          "name": "",
          "type": "string"
        }
      ],
      "stateMutability": "view",
      "type": "function"
    },
    {
      "inputs": [
        {
          "internalType": "uint256",
          "name": "tokenId",
          "type": "uint256"
        }
      ],
      "name": "tokenURI",
      "outputs": [
        {
          "internalType": "string",
          "name": "",
          "type": "string"
        }
      ],
      "stateMutability": "view",
      "type": "function"
    },
    {
      "inputs": [
        {
          "internalType": "address",
          "name": "from",
          "type": "address"
        },
        {
          "internalType": "address",
          "name": "to",
          "type": "address"
        },
        {
          "internalType": "uint256",
          "name": "tokenId",
          "type": "uint256"
        }
      ],
      "name": "transferFrom",
      "outputs": [],
      "stateMutability": "nonpayable",
      "type": "function"
    },
    {
      "inputs": [
        {
          "internalType": "uint256",
          "name": "proposalId",
          "type": "uint256"
        }
      ],
      "name": "voteForNFT",
      "outputs": [],
      "stateMutability": "nonpayable",
      "type": "function"
    }
  ],
  "bytecode": "0x6080604052683635c9adc5dea00000600d5534801561001d57600080fd5b50604051614151380380614151833981810160405281019061003f91906101c9565b6040518060400160405280600681526020017f44414f4e465400000000000000000000000000000000000000000000000000008152506040518060400160405280600481526020017f444e46540000000000000000000000000000000000000000000000000000000081525081600090816100ba9190610459565b5080600190816100ca9190610459565b50505081600660006101000a81548173ffffffffffffffffffffffffffffffffffffffff021916908373ffffffffffffffffffffffffffffffffffffffff16021790555080600760006101000a81548173ffffffffffffffffffffffffffffffffffffffff021916908373ffffffffffffffffffffffffffffffffffffffff16021790555060006008819055506000600c81905550505061052b565b600080fd5b600073ffffffffffffffffffffffffffffffffffffffff82169050919050565b60006101968261016b565b9050919050565b6101a68161018b565b81146101b157600080fd5b50565b6000815190506101c38161019d565b92915050565b600080604083850312156101e0576101df610166565b5b60006101ee858286016101b4565b92505060206101ff858286016101b4565b9150509250929050565b600081519050919050565b7f4e487b7100000000000000000000000000000000000000000000000000000000600052604160045260246000fd5b7f4e487b7100000000000000000000000000000000000000000000000000000000600052602260045260246000fd5b6000600282049050600182168061028a57607f821691505b60208210810361029d5761029c610243565b5b50919050565b60008190508160005260206000209050919050565b60006020601f8301049050919050565b600082821b905092915050565b6000600883026103057fffffffffffffffffffffffffffffffffffffffffffffffffffffffffffffffff826102c8565b61030f86836102c8565b95508019841693508086168417925050509392505050565b6000819050919050565b6000819050919050565b600061035661035161034c84610327565b610331565b610327565b9050919050565b6000819050919050565b6103708361033b565b61038461037c8261035d565b8484546102d5565b825550505050565b600090565b61039961038c565b6103a4818484610367565b505050565b5b818110156103c8576103bd600082610391565b6001810190506103aa565b5050565b601f82111561040d576103de816102a3565b6103e7846102b8565b810160208510156103f6578190505b61040a610402856102b8565b8301826103a9565b50505b505050565b600082821c905092915050565b600061043060001984600802610412565b1980831691505092915050565b6000610449838361041f565b9150826002028217905092915050565b61046282610209565b67ffffffffffffffff81111561047b5761047a610214565b5b6104858254610272565b6104908282856103cc565b600060209050601f8311600181146104c357600084156104b1578287015190505b6104bb858261043d565b865550610523565b601f1984166104d1866102a3565b60005b828110156104f9578489015182556001820191506020850194506020810190506104d4565b868310156105165784890151610512601f89168261041f565b8355505b6001600288020188555050505b505050505050565b613c178061053a6000396000f3fe608060405234801561001057600080fd5b506004361061018e5760003560e01c8063555356ab116100de57806395d89b4111610097578063bd31a4d811610071578063bd31a4d814610485578063c87b56dd146104a3578063e985e9c5146104d3578063f96dae0a146105035761018e565b806395d89b411461042f578063a22cb4651461044d578063b88d4fde146104695761018e565b8063555356ab1461035d5780636352211e1461037b57806369aecfd7146103ab57806370a08231146103c757806389ba52c4146103f757806391a48a1e146104135761018e565b806323b872dd1161014b578063438596321161012557806343859632146102ab57806344432bfc146102db57806351ed82881461030e57806354ab95881461032a5761018e565b806323b872dd146102555780633013ce291461027157806342842e0e1461028f5761018e565b806301ffc9a71461019357806306fdde03146101c3578063081812fc146101e1578063095ea7b3146102115780630c0512e91461022d57806314f710fe1461024b575b600080fd5b6101ad60048036038101906101a891906127b1565b610521565b6040516101ba91906127f9565b60405180910390f35b6101cb610603565b6040516101d891906128a4565b60405180910390f35b6101fb60048036038101906101f691906128fc565b610695565b604051610208919061296a565b60405180910390f35b61022b600480360381019061022691906129b1565b6106b1565b005b6102356106c7565b6040516102429190612a00565b60405180910390f35b6102536106cd565b005b61026f600480360381019061026a9190612a1b565b6106ef565b005b6102796107f1565b6040516102869190612acd565b60405180910390f35b6102a960048036038101906102a49190612a1b565b610817565b005b6102c560048036038101906102c09190612ae8565b610837565b6040516102d291906127f9565b60405180910390f35b6102f560048036038101906102f091906128fc565b610866565b6040516103059493929190612b28565b60405180910390f35b610328600480360381019061032391906128fc565b6108c3565b005b610344600480360381019061033f91906128fc565b610b1f565b6040516103549493929190612b6d565b60405180910390f35b610365610c04565b6040516103729190612d55565b60405180910390f35b610395600480360381019061039091906128fc565b610e4e565b6040516103a2919061296a565b60405180910390f35b6103c560048036038101906103c09190612eac565b610e60565b005b6103e160048036038101906103dc9190612ef5565b610f91565b6040516103ee9190612a00565b60405180910390f35b610411600480360381019061040c91906128fc565b61104b565b005b61042d60048036038101906104289190612f22565b61139a565b005b61043761152e565b60405161044491906128a4565b60405180910390f35b61046760048036038101906104629190612f8e565b6115c0565b005b610483600480360381019061047e919061306f565b6115d6565b005b61048d6115fb565b60405161049a9190612a00565b60405180910390f35b6104bd60048036038101906104b891906128fc565b611601565b6040516104ca91906128a4565b60405180910390f35b6104ed60048036038101906104e891906130f2565b61166a565b6040516104fa91906127f9565b60405180910390f35b61050b6116fe565b6040516105189190612acd565b60405180910390f35b60007f80ac58cd000000000000000000000000000000000000000000000000000000007bffffffffffffffffffffffffffffffffffffffffffffffffffffffff1916827bffffffffffffffffffffffffffffffffffffffffffffffffffffffff191614806105ec57507f5b5e139f000000000000000000000000000000000000000000000000000000007bffffffffffffffffffffffffffffffffffffffffffffffffffffffff1916827bffffffffffffffffffffffffffffffffffffffffffffffffffffffff1916145b806105fc57506105fb82611724565b5b9050919050565b60606000805461061290613161565b80601f016020809104026020016040519081016040528092919081815260200182805461063e90613161565b801561068b5780601f106106605761010080835404028352916020019161068b565b820191906000526020600020905b81548152906001019060200180831161066e57829003601f168201915b5050505050905090565b60006106a08261178e565b506106aa82611816565b9050919050565b6106c382826106be611853565b61185b565b5050565b600c5481565b6106ed33600860008154809291906106e4906131c1565b9190505561186d565b565b600073ffffffffffffffffffffffffffffffffffffffff168273ffffffffffffffffffffffffffffffffffffffff16036107615760006040517f64a0ae92000000000000000000000000000000000000000000000000000000008152600401610758919061296a565b60405180910390fd5b60006107758383610770611853565b611966565b90508373ffffffffffffffffffffffffffffffffffffffff168173ffffffffffffffffffffffffffffffffffffffff16146107eb578382826040517f64283d7b0000000000000000000000000000000000000000000000000000000081526004016107e293929190613209565b60405180910390fd5b50505050565b600760009054906101000a900473ffffffffffffffffffffffffffffffffffffffff1681565b610832838383604051806020016040528060008152506115d6565b505050565b600a6020528160005260406000206020528060005260406000206000915091509054906101000a900460ff1681565b600b6020528060005260406000206000915090508060000154908060010160009054906101000a900473ffffffffffffffffffffffffffffffffffffffff16908060020154908060030160009054906101000a900460ff16905084565b6000600b600083815260200190815260200160002090508060030160009054906101000a900460ff161561092c576040517f08c379a00000000000000000000000000000000000000000000000000000000081526004016109239061328c565b60405180910390fd5b6000816002015411610973576040517f08c379a000000000000000000000000000000000000000000000000000000000815260040161096a906132f8565b60405180910390fd5b600760009054906101000a900473ffffffffffffffffffffffffffffffffffffffff1673ffffffffffffffffffffffffffffffffffffffff166323b872dd338360010160009054906101000a900473ffffffffffffffffffffffffffffffffffffffff1684600201546040518463ffffffff1660e01b81526004016109fa93929190613318565b6020604051808303816000875af1158015610a19573d6000803e3d6000fd5b505050506040513d601f19601f82011682018060405250810190610a3d9190613364565b610a7c576040517f08c379a0000000000000000000000000000000000000000000000000000000008152600401610a73906133dd565b60405180910390fd5b610aab8160010160009054906101000a900473ffffffffffffffffffffffffffffffffffffffff163384611b80565b60018160030160006101000a81548160ff0219169083151502179055503373ffffffffffffffffffffffffffffffffffffffff16827f6329e40c0365262ebbff5ca819385c2b9713dcaa050ed07866d72c441395699a8360020154604051610b139190612a00565b60405180910390a35050565b6009602052806000526040600020600091509050806000018054610b4290613161565b80601f0160208091040260200160405190810160405280929190818152602001828054610b6e90613161565b8015610bbb5780601f10610b9057610100808354040283529160200191610bbb565b820191906000526020600020905b815481529060010190602001808311610b9e57829003601f168201915b5050505050908060010160009054906101000a900473ffffffffffffffffffffffffffffffffffffffff16908060020154908060030160009054906101000a900460ff16905084565b60606000600c5467ffffffffffffffff811115610c2457610c23612d81565b5b604051908082528060200260200182016040528015610c5d57816020015b610c4a612705565b815260200190600190039081610c425790505b50905060005b600c54811015610e4657600073ffffffffffffffffffffffffffffffffffffffff1660096000600184610c9691906133fd565b815260200190815260200160002060010160009054906101000a900473ffffffffffffffffffffffffffffffffffffffff1673ffffffffffffffffffffffffffffffffffffffff1614610e395760096000600183610cf491906133fd565b8152602001908152602001600020604051806080016040529081600082018054610d1d90613161565b80601f0160208091040260200160405190810160405280929190818152602001828054610d4990613161565b8015610d965780601f10610d6b57610100808354040283529160200191610d96565b820191906000526020600020905b815481529060010190602001808311610d7957829003601f168201915b505050505081526020016001820160009054906101000a900473ffffffffffffffffffffffffffffffffffffffff1673ffffffffffffffffffffffffffffffffffffffff1673ffffffffffffffffffffffffffffffffffffffff168152602001600282015481526020016003820160009054906101000a900460ff161515151581525050828281518110610e2d57610e2c613431565b5b60200260200101819052505b8080600101915050610c63565b508091505090565b6000610e598261178e565b9050919050565b600c6000815480929190610e73906131c1565b919050555060405180608001604052808281526020013373ffffffffffffffffffffffffffffffffffffffff168152602001600081526020016000151581525060096000600c5481526020019081526020016000206000820151816000019081610edd9190613602565b5060208201518160010160006101000a81548173ffffffffffffffffffffffffffffffffffffffff021916908373ffffffffffffffffffffffffffffffffffffffff1602179055506040820151816002015560608201518160030160006101000a81548160ff021916908315150217905550905050600c547f66fde1e5134898d49de0f081d598cf7d8fba2432595667ac3cbef6dd60dc01158233604051610f869291906136d4565b60405180910390a250565b60008073ffffffffffffffffffffffffffffffffffffffff168273ffffffffffffffffffffffffffffffffffffffff16036110045760006040517f89c62b64000000000000000000000000000000000000000000000000000000008152600401610ffb919061296a565b60405180910390fd5b600360008373ffffffffffffffffffffffffffffffffffffffff1673ffffffffffffffffffffffffffffffffffffffff168152602001908152602001600020549050919050565b600073ffffffffffffffffffffffffffffffffffffffff166009600083815260200190815260200160002060010160009054906101000a900473ffffffffffffffffffffffffffffffffffffffff1673ffffffffffffffffffffffffffffffffffffffff16036110f0576040517f08c379a00000000000000000000000000000000000000000000000000000000081526004016110e790613750565b60405180910390fd5b600a600082815260200190815260200160002060003373ffffffffffffffffffffffffffffffffffffffff1673ffffffffffffffffffffffffffffffffffffffff16815260200190815260200160002060009054906101000a900460ff161561118e576040517f08c379a0000000000000000000000000000000000000000000000000000000008152600401611185906137bc565b60405180910390fd5b6000600660009054906101000a900473ffffffffffffffffffffffffffffffffffffffff1673ffffffffffffffffffffffffffffffffffffffff166370a08231336040518263ffffffff1660e01b81526004016111eb919061296a565b602060405180830381865afa158015611208573d6000803e3d6000fd5b505050506040513d601f19601f8201168201806040525081019061122c91906137f1565b905060008111611271576040517f08c379a00000000000000000000000000000000000000000000000000000000081526004016112689061386a565b60405180910390fd5b8060096000848152602001908152602001600020600201600082825461129791906133fd565b925050819055506001600a600084815260200190815260200160002060003373ffffffffffffffffffffffffffffffffffffffff1673ffffffffffffffffffffffffffffffffffffffff16815260200190815260200160002060006101000a81548160ff0219169083151502179055503373ffffffffffffffffffffffffffffffffffffffff16827f3ae89ec44d6750209e1164a2659a766e3cfe3476e908a19cb5e928974ef5e4ec600960008681526020019081526020016000206000018460405161136592919061390e565b60405180910390a3600d546009600084815260200190815260200160002060020154106113965761139582611ced565b5b5050565b3373ffffffffffffffffffffffffffffffffffffffff166113ba83610e4e565b73ffffffffffffffffffffffffffffffffffffffff1614611410576040517f08c379a00000000000000000000000000000000000000000000000000000000081526004016114079061398a565b60405180910390fd5b60405180608001604052808381526020013373ffffffffffffffffffffffffffffffffffffffff16815260200182815260200160001515815250600b60008481526020019081526020016000206000820151816000015560208201518160010160006101000a81548173ffffffffffffffffffffffffffffffffffffffff021916908373ffffffffffffffffffffffffffffffffffffffff1602179055506040820151816002015560608201518160030160006101000a81548160ff0219169083151502179055509050503373ffffffffffffffffffffffffffffffffffffffff16827f14a255b52c2c9ce6f941bf319d36b2ea85f244c2d15ce1ed0e9a68ee8bf174d8836040516115229190612a00565b60405180910390a35050565b60606001805461153d90613161565b80601f016020809104026020016040519081016040528092919081815260200182805461156990613161565b80156115b65780601f1061158b576101008083540402835291602001916115b6565b820191906000526020600020905b81548152906001019060200180831161159957829003601f168201915b5050505050905090565b6115d26115cb611853565b8383611e26565b5050565b6115e18484846106ef565b6115f56115ec611853565b85858585611f95565b50505050565b600d5481565b606061160c8261178e565b506000611617612146565b905060008151116116375760405180602001604052806000815250611662565b806116418461215d565b6040516020016116529291906139e6565b6040516020818303038152906040525b915050919050565b6000600560008473ffffffffffffffffffffffffffffffffffffffff1673ffffffffffffffffffffffffffffffffffffffff16815260200190815260200160002060008373ffffffffffffffffffffffffffffffffffffffff1673ffffffffffffffffffffffffffffffffffffffff16815260200190815260200160002060009054906101000a900460ff16905092915050565b600660009054906101000a900473ffffffffffffffffffffffffffffffffffffffff1681565b60007f01ffc9a7000000000000000000000000000000000000000000000000000000007bffffffffffffffffffffffffffffffffffffffffffffffffffffffff1916827bffffffffffffffffffffffffffffffffffffffffffffffffffffffff1916149050919050565b60008061179a8361222b565b9050600073ffffffffffffffffffffffffffffffffffffffff168173ffffffffffffffffffffffffffffffffffffffff160361180d57826040517f7e2732890000000000000000000000000000000000000000000000000000000081526004016118049190612a00565b60405180910390fd5b80915050919050565b60006004600083815260200190815260200160002060009054906101000a900473ffffffffffffffffffffffffffffffffffffffff169050919050565b600033905090565b6118688383836001612268565b505050565b600073ffffffffffffffffffffffffffffffffffffffff168273ffffffffffffffffffffffffffffffffffffffff16036118df5760006040517f64a0ae920000000000000000000000000000000000000000000000000000000081526004016118d6919061296a565b60405180910390fd5b60006118ed83836000611966565b9050600073ffffffffffffffffffffffffffffffffffffffff168173ffffffffffffffffffffffffffffffffffffffff16146119615760006040517f73c6ac6e000000000000000000000000000000000000000000000000000000008152600401611958919061296a565b60405180910390fd5b505050565b6000806119728461222b565b9050600073ffffffffffffffffffffffffffffffffffffffff168373ffffffffffffffffffffffffffffffffffffffff16146119b4576119b381848661242d565b5b600073ffffffffffffffffffffffffffffffffffffffff168173ffffffffffffffffffffffffffffffffffffffff1614611a45576119f6600085600080612268565b6001600360008373ffffffffffffffffffffffffffffffffffffffff1673ffffffffffffffffffffffffffffffffffffffff168152602001908152602001600020600082825403925050819055505b600073ffffffffffffffffffffffffffffffffffffffff168573ffffffffffffffffffffffffffffffffffffffff1614611ac8576001600360008773ffffffffffffffffffffffffffffffffffffffff1673ffffffffffffffffffffffffffffffffffffffff168152602001908152602001600020600082825401925050819055505b846002600086815260200190815260200160002060006101000a81548173ffffffffffffffffffffffffffffffffffffffff021916908373ffffffffffffffffffffffffffffffffffffffff160217905550838573ffffffffffffffffffffffffffffffffffffffff168273ffffffffffffffffffffffffffffffffffffffff167fddf252ad1be2c89b69c2b068fc378daa952ba7f163c4a11628f55a4df523b3ef60405160405180910390a4809150509392505050565b600073ffffffffffffffffffffffffffffffffffffffff168273ffffffffffffffffffffffffffffffffffffffff1603611bf25760006040517f64a0ae92000000000000000000000000000000000000000000000000000000008152600401611be9919061296a565b60405180910390fd5b6000611c0083836000611966565b9050600073ffffffffffffffffffffffffffffffffffffffff168173ffffffffffffffffffffffffffffffffffffffff1603611c7357816040517f7e273289000000000000000000000000000000000000000000000000000000008152600401611c6a9190612a00565b60405180910390fd5b8373ffffffffffffffffffffffffffffffffffffffff168173ffffffffffffffffffffffffffffffffffffffff1614611ce7578382826040517f64283d7b000000000000000000000000000000000000000000000000000000008152600401611cde93929190613209565b60405180910390fd5b50505050565b60006009600083815260200190815260200160002090508060030160009054906101000a900460ff1615611d56576040517f08c379a0000000000000000000000000000000000000000000000000000000008152600401611d4d90613a56565b60405180910390fd5b60086000815480929190611d69906131c1565b919050555060006008549050611da38260010160009054906101000a900473ffffffffffffffffffffffffffffffffffffffff168261186d565b60018260030160006101000a81548160ff021916908315150217905550807f411b345259a1495602cee098e5f501eb3412e0701c10b173ecd8ba7b585974a9836000018460010160009054906101000a900473ffffffffffffffffffffffffffffffffffffffff16604051611e19929190613a76565b60405180910390a2505050565b600073ffffffffffffffffffffffffffffffffffffffff168273ffffffffffffffffffffffffffffffffffffffff1603611e9757816040517f5b08ba18000000000000000000000000000000000000000000000000000000008152600401611e8e919061296a565b60405180910390fd5b80600560008573ffffffffffffffffffffffffffffffffffffffff1673ffffffffffffffffffffffffffffffffffffffff16815260200190815260200160002060008473ffffffffffffffffffffffffffffffffffffffff1673ffffffffffffffffffffffffffffffffffffffff16815260200190815260200160002060006101000a81548160ff0219169083151502179055508173ffffffffffffffffffffffffffffffffffffffff168373ffffffffffffffffffffffffffffffffffffffff167f17307eab39ab6107e8899845ad3d59bd9653f200f220920489ca2b5937696c3183604051611f8891906127f9565b60405180910390a3505050565b60008373ffffffffffffffffffffffffffffffffffffffff163b111561213f578273ffffffffffffffffffffffffffffffffffffffff1663150b7a02868685856040518563ffffffff1660e01b8152600401611ff49493929190613afb565b6020604051808303816000875af192505050801561203057506040513d601f19601f8201168201806040525081019061202d9190613b5c565b60015b6120b4573d8060008114612060576040519150601f19603f3d011682016040523d82523d6000602084013e612065565b606091505b5060008151036120ac57836040517f64a0ae920000000000000000000000000000000000000000000000000000000081526004016120a3919061296a565b60405180910390fd5b805181602001fd5b63150b7a0260e01b7bffffffffffffffffffffffffffffffffffffffffffffffffffffffff1916817bffffffffffffffffffffffffffffffffffffffffffffffffffffffff19161461213d57836040517f64a0ae92000000000000000000000000000000000000000000000000000000008152600401612134919061296a565b60405180910390fd5b505b5050505050565b606060405180602001604052806000815250905090565b60606000600161216c846124f1565b01905060008167ffffffffffffffff81111561218b5761218a612d81565b5b6040519080825280601f01601f1916602001820160405280156121bd5781602001600182028036833780820191505090505b509050600082602001820190505b600115612220578080600190039150507f3031323334353637383961626364656600000000000000000000000000000000600a86061a8153600a858161221457612213613b89565b5b049450600085036121cb575b819350505050919050565b60006002600083815260200190815260200160002060009054906101000a900473ffffffffffffffffffffffffffffffffffffffff169050919050565b80806122a15750600073ffffffffffffffffffffffffffffffffffffffff168273ffffffffffffffffffffffffffffffffffffffff1614155b156123d55760006122b18461178e565b9050600073ffffffffffffffffffffffffffffffffffffffff168373ffffffffffffffffffffffffffffffffffffffff161415801561231c57508273ffffffffffffffffffffffffffffffffffffffff168173ffffffffffffffffffffffffffffffffffffffff1614155b801561232f575061232d818461166a565b155b1561237157826040517fa9fbf51f000000000000000000000000000000000000000000000000000000008152600401612368919061296a565b60405180910390fd5b81156123d357838573ffffffffffffffffffffffffffffffffffffffff168273ffffffffffffffffffffffffffffffffffffffff167f8c5be1e5ebec7d5bd14f71427d1e84f3dd0314c0f7b2291e5b200ac8c7c3b92560405160405180910390a45b505b836004600085815260200190815260200160002060006101000a81548173ffffffffffffffffffffffffffffffffffffffff021916908373ffffffffffffffffffffffffffffffffffffffff16021790555050505050565b612438838383612644565b6124ec57600073ffffffffffffffffffffffffffffffffffffffff168373ffffffffffffffffffffffffffffffffffffffff16036124ad57806040517f7e2732890000000000000000000000000000000000000000000000000000000081526004016124a49190612a00565b60405180910390fd5b81816040517f177e802f0000000000000000000000000000000000000000000000000000000081526004016124e3929190613bb8565b60405180910390fd5b505050565b600080600090507a184f03e93ff9f4daa797ed6e38ed64bf6a1f010000000000000000831061254f577a184f03e93ff9f4daa797ed6e38ed64bf6a1f010000000000000000838161254557612544613b89565b5b0492506040810190505b6d04ee2d6d415b85acef8100000000831061258c576d04ee2d6d415b85acef8100000000838161258257612581613b89565b5b0492506020810190505b662386f26fc1000083106125bb57662386f26fc1000083816125b1576125b0613b89565b5b0492506010810190505b6305f5e10083106125e4576305f5e10083816125da576125d9613b89565b5b0492506008810190505b61271083106126095761271083816125ff576125fe613b89565b5b0492506004810190505b6064831061262c576064838161262257612621613b89565b5b0492506002810190505b600a831061263b576001810190505b80915050919050565b60008073ffffffffffffffffffffffffffffffffffffffff168373ffffffffffffffffffffffffffffffffffffffff16141580156126fc57508273ffffffffffffffffffffffffffffffffffffffff168473ffffffffffffffffffffffffffffffffffffffff1614806126bd57506126bc848461166a565b5b806126fb57508273ffffffffffffffffffffffffffffffffffffffff166126e383611816565b73ffffffffffffffffffffffffffffffffffffffff16145b5b90509392505050565b604051806080016040528060608152602001600073ffffffffffffffffffffffffffffffffffffffff168152602001600081526020016000151581525090565b6000604051905090565b600080fd5b600080fd5b60007fffffffff0000000000000000000000000000000000000000000000000000000082169050919050565b61278e81612759565b811461279957600080fd5b50565b6000813590506127ab81612785565b92915050565b6000602082840312156127c7576127c661274f565b5b60006127d58482850161279c565b91505092915050565b60008115159050919050565b6127f3816127de565b82525050565b600060208201905061280e60008301846127ea565b92915050565b600081519050919050565b600082825260208201905092915050565b60005b8381101561284e578082015181840152602081019050612833565b60008484015250505050565b6000601f19601f8301169050919050565b600061287682612814565b612880818561281f565b9350612890818560208601612830565b6128998161285a565b840191505092915050565b600060208201905081810360008301526128be818461286b565b905092915050565b6000819050919050565b6128d9816128c6565b81146128e457600080fd5b50565b6000813590506128f6816128d0565b92915050565b6000602082840312156129125761291161274f565b5b6000612920848285016128e7565b91505092915050565b600073ffffffffffffffffffffffffffffffffffffffff82169050919050565b600061295482612929565b9050919050565b61296481612949565b82525050565b600060208201905061297f600083018461295b565b92915050565b61298e81612949565b811461299957600080fd5b50565b6000813590506129ab81612985565b92915050565b600080604083850312156129c8576129c761274f565b5b60006129d68582860161299c565b92505060206129e7858286016128e7565b9150509250929050565b6129fa816128c6565b82525050565b6000602082019050612a1560008301846129f1565b92915050565b600080600060608486031215612a3457612a3361274f565b5b6000612a428682870161299c565b9350506020612a538682870161299c565b9250506040612a64868287016128e7565b9150509250925092565b6000819050919050565b6000612a93612a8e612a8984612929565b612a6e565b612929565b9050919050565b6000612aa582612a78565b9050919050565b6000612ab782612a9a565b9050919050565b612ac781612aac565b82525050565b6000602082019050612ae26000830184612abe565b92915050565b60008060408385031215612aff57612afe61274f565b5b6000612b0d858286016128e7565b9250506020612b1e8582860161299c565b9150509250929050565b6000608082019050612b3d60008301876129f1565b612b4a602083018661295b565b612b5760408301856129f1565b612b6460608301846127ea565b95945050505050565b60006080820190508181036000830152612b87818761286b565b9050612b96602083018661295b565b612ba360408301856129f1565b612bb060608301846127ea565b95945050505050565b600081519050919050565b600082825260208201905092915050565b6000819050602082019050919050565b600082825260208201905092915050565b6000612c0182612814565b612c0b8185612be5565b9350612c1b818560208601612830565b612c248161285a565b840191505092915050565b612c3881612949565b82525050565b612c47816128c6565b82525050565b612c56816127de565b82525050565b60006080830160008301518482036000860152612c798282612bf6565b9150506020830151612c8e6020860182612c2f565b506040830151612ca16040860182612c3e565b506060830151612cb46060860182612c4d565b508091505092915050565b6000612ccb8383612c5c565b905092915050565b6000602082019050919050565b6000612ceb82612bb9565b612cf58185612bc4565b935083602082028501612d0785612bd5565b8060005b85811015612d435784840389528151612d248582612cbf565b9450612d2f83612cd3565b925060208a01995050600181019050612d0b565b50829750879550505050505092915050565b60006020820190508181036000830152612d6f8184612ce0565b905092915050565b600080fd5b600080fd5b7f4e487b7100000000000000000000000000000000000000000000000000000000600052604160045260246000fd5b612db98261285a565b810181811067ffffffffffffffff82111715612dd857612dd7612d81565b5b80604052505050565b6000612deb612745565b9050612df78282612db0565b919050565b600067ffffffffffffffff821115612e1757612e16612d81565b5b612e208261285a565b9050602081019050919050565b82818337600083830152505050565b6000612e4f612e4a84612dfc565b612de1565b905082815260208101848484011115612e6b57612e6a612d7c565b5b612e76848285612e2d565b509392505050565b600082601f830112612e9357612e92612d77565b5b8135612ea3848260208601612e3c565b91505092915050565b600060208284031215612ec257612ec161274f565b5b600082013567ffffffffffffffff811115612ee057612edf612754565b5b612eec84828501612e7e565b91505092915050565b600060208284031215612f0b57612f0a61274f565b5b6000612f198482850161299c565b91505092915050565b60008060408385031215612f3957612f3861274f565b5b6000612f47858286016128e7565b9250506020612f58858286016128e7565b9150509250929050565b612f6b816127de565b8114612f7657600080fd5b50565b600081359050612f8881612f62565b92915050565b60008060408385031215612fa557612fa461274f565b5b6000612fb38582860161299c565b9250506020612fc485828601612f79565b9150509250929050565b600067ffffffffffffffff821115612fe957612fe8612d81565b5b612ff28261285a565b9050602081019050919050565b600061301261300d84612fce565b612de1565b90508281526020810184848401111561302e5761302d612d7c565b5b613039848285612e2d565b509392505050565b600082601f83011261305657613055612d77565b5b8135613066848260208601612fff565b91505092915050565b600080600080608085870312156130895761308861274f565b5b60006130978782880161299c565b94505060206130a88782880161299c565b93505060406130b9878288016128e7565b925050606085013567ffffffffffffffff8111156130da576130d9612754565b5b6130e687828801613041565b91505092959194509250565b600080604083850312156131095761310861274f565b5b60006131178582860161299c565b92505060206131288582860161299c565b9150509250929050565b7f4e487b7100000000000000000000000000000000000000000000000000000000600052602260045260246000fd5b6000600282049050600182168061317957607f821691505b60208210810361318c5761318b613132565b5b50919050565b7f4e487b7100000000000000000000000000000000000000000000000000000000600052601160045260246000fd5b60006131cc826128c6565b91507fffffffffffffffffffffffffffffffffffffffffffffffffffffffffffffffff82036131fe576131fd613192565b5b600182019050919050565b600060608201905061321e600083018661295b565b61322b60208301856129f1565b613238604083018461295b565b949350505050565b7f4e465420616c726561647920736f6c6400000000000000000000000000000000600082015250565b600061327660108361281f565b915061328182613240565b602082019050919050565b600060208201905081810360008301526132a581613269565b9050919050565b7f4e4654206e6f7420666f722073616c6500000000000000000000000000000000600082015250565b60006132e260108361281f565b91506132ed826132ac565b602082019050919050565b60006020820190508181036000830152613311816132d5565b9050919050565b600060608201905061332d600083018661295b565b61333a602083018561295b565b61334760408301846129f1565b949350505050565b60008151905061335e81612f62565b92915050565b60006020828403121561337a5761337961274f565b5b60006133888482850161334f565b91505092915050565b7f5061796d656e74206661696c6564000000000000000000000000000000000000600082015250565b60006133c7600e8361281f565b91506133d282613391565b602082019050919050565b600060208201905081810360008301526133f6816133ba565b9050919050565b6000613408826128c6565b9150613413836128c6565b925082820190508082111561342b5761342a613192565b5b92915050565b7f4e487b7100000000000000000000000000000000000000000000000000000000600052603260045260246000fd5b60008190508160005260206000209050919050565b60006020601f8301049050919050565b600082821b905092915050565b6000600883026134c27fffffffffffffffffffffffffffffffffffffffffffffffffffffffffffffffff82613485565b6134cc8683613485565b95508019841693508086168417925050509392505050565b60006134ff6134fa6134f5846128c6565b612a6e565b6128c6565b9050919050565b6000819050919050565b613519836134e4565b61352d61352582613506565b848454613492565b825550505050565b600090565b613542613535565b61354d818484613510565b505050565b5b818110156135715761356660008261353a565b600181019050613553565b5050565b601f8211156135b65761358781613460565b61359084613475565b8101602085101561359f578190505b6135b36135ab85613475565b830182613552565b50505b505050565b600082821c905092915050565b60006135d9600019846008026135bb565b1980831691505092915050565b60006135f283836135c8565b9150826002028217905092915050565b61360b82612814565b67ffffffffffffffff81111561362457613623612d81565b5b61362e8254613161565b613639828285613575565b600060209050601f83116001811461366c576000841561365a578287015190505b61366485826135e6565b8655506136cc565b601f19841661367a86613460565b60005b828110156136a25784890151825560018201915060208501945060208101905061367d565b868310156136bf57848901516136bb601f8916826135c8565b8355505b6001600288020188555050505b505050505050565b600060408201905081810360008301526136ee818561286b565b90506136fd602083018461295b565b9392505050565b7f50726f706f73616c20646f6573206e6f74206578697374000000000000000000600082015250565b600061373a60178361281f565b915061374582613704565b602082019050919050565b600060208201905081810360008301526137698161372d565b9050919050565b7f416c726561647920766f74656400000000000000000000000000000000000000600082015250565b60006137a6600d8361281f565b91506137b182613770565b602082019050919050565b600060208201905081810360008301526137d581613799565b9050919050565b6000815190506137eb816128d0565b92915050565b6000602082840312156138075761380661274f565b5b6000613815848285016137dc565b91505092915050565b7f4e6f20676f7665726e616e636520746f6b656e73000000000000000000000000600082015250565b600061385460148361281f565b915061385f8261381e565b602082019050919050565b6000602082019050818103600083015261388381613847565b9050919050565b6000815461389781613161565b6138a1818661281f565b945060018216600081146138bc57600181146138d257613905565b60ff198316865281151560200286019350613905565b6138db85613460565b60005b838110156138fd578154818901526001820191506020810190506138de565b808801955050505b50505092915050565b60006040820190508181036000830152613928818561388a565b905061393760208301846129f1565b9392505050565b7f4e6f7420746865206f776e657200000000000000000000000000000000000000600082015250565b6000613974600d8361281f565b915061397f8261393e565b602082019050919050565b600060208201905081810360008301526139a381613967565b9050919050565b600081905092915050565b60006139c082612814565b6139ca81856139aa565b93506139da818560208601612830565b80840191505092915050565b60006139f282856139b5565b91506139fe82846139b5565b91508190509392505050565b7f416c7265616479206d696e746564000000000000000000000000000000000000600082015250565b6000613a40600e8361281f565b9150613a4b82613a0a565b602082019050919050565b60006020820190508181036000830152613a6f81613a33565b9050919050565b60006040820190508181036000830152613a90818561388a565b9050613a9f602083018461295b565b9392505050565b600081519050919050565b600082825260208201905092915050565b6000613acd82613aa6565b613ad78185613ab1565b9350613ae7818560208601612830565b613af08161285a565b840191505092915050565b6000608082019050613b10600083018761295b565b613b1d602083018661295b565b613b2a60408301856129f1565b8181036060830152613b3c8184613ac2565b905095945050505050565b600081519050613b5681612785565b92915050565b600060208284031215613b7257613b7161274f565b5b6000613b8084828501613b47565b91505092915050565b7f4e487b7100000000000000000000000000000000000000000000000000000000600052601260045260246000fd5b6000604082019050613bcd600083018561295b565b613bda60208301846129f1565b939250505056fea2646970667358221220dc47dcac66ef5ceb8bd40a40c70e043a40db70bbbddb77363d17dae1ef09967664736f6c634300081d0033",
  "linkReferences": {},
  "deployedLinkReferences": {}
}