{
  "_format": "hh-sol-artifact-1",
  "contractName": "DAONFT",
  "sourceName": "contracts/DAONFT.sol",
  "abi": [
    {
      "inputs": [
        {
          "internalType": "address",
          "name": "_governanceToken",
          "type": "address"
        }
      ],
      "stateMutability": "nonpayable",
      "type": "constructor"
    },
    {
      "inputs": [
        {
          "internalType": "address",
          "name": "sender",
          "type": "address"
        },
        {
          "internalType": "uint256",
          "name": "tokenId",
          "type": "uint256"
        },
        {
          "internalType": "address",
          "name": "owner",
          "type": "address"
        }
      ],
      "name": "ERC721IncorrectOwner",
      "type": "error"
    },
    {
      "inputs": [
        {
          "internalType": "address",
          "name": "operator",
          "type": "address"
        },
        {
          "internalType": "uint256",
          "name": "tokenId",
          "type": "uint256"
        }
      ],
      "name": "ERC721InsufficientApproval",
      "type": "error"
    },
    {
      "inputs": [
        {
          "internalType": "address",
          "name": "approver",
          "type": "address"
        }
      ],
      "name": "ERC721InvalidApprover",
      "type": "error"
    },
    {
      "inputs": [
        {
          "internalType": "address",
          "name": "operator",
          "type": "address"
        }
      ],
      "name": "ERC721InvalidOperator",
      "type": "error"
    },
    {
      "inputs": [
        {
          "internalType": "address",
          "name": "owner",
          "type": "address"
        }
      ],
      "name": "ERC721InvalidOwner",
      "type": "error"
    },
    {
      "inputs": [
        {
          "internalType": "address",
          "name": "receiver",
          "type": "address"
        }
      ],
      "name": "ERC721InvalidReceiver",
      "type": "error"
    },
    {
      "inputs": [
        {
          "internalType": "address",
          "name": "sender",
          "type": "address"
        }
      ],
      "name": "ERC721InvalidSender",
      "type": "error"
    },
    {
      "inputs": [
        {
          "internalType": "uint256",
          "name": "tokenId",
          "type": "uint256"
        }
      ],
      "name": "ERC721NonexistentToken",
      "type": "error"
    },
    {
      "anonymous": false,
      "inputs": [
        {
          "indexed": true,
          "internalType": "address",
          "name": "owner",
          "type": "address"
        },
        {
          "indexed": true,
          "internalType": "address",
          "name": "approved",
          "type": "address"
        },
        {
          "indexed": true,
          "internalType": "uint256",
          "name": "tokenId",
          "type": "uint256"
        }
      ],
      "name": "Approval",
      "type": "event"
    },
    {
      "anonymous": false,
      "inputs": [
        {
          "indexed": true,
          "internalType": "address",
          "name": "owner",
          "type": "address"
        },
        {
          "indexed": true,
          "internalType": "address",
          "name": "operator",
          "type": "address"
        },
        {
          "indexed": false,
          "internalType": "bool",
          "name": "approved",
          "type": "bool"
        }
      ],
      "name": "ApprovalForAll",
      "type": "event"
    },
    {
      "anonymous": false,
      "inputs": [
        {
          "indexed": true,
          "internalType": "uint256",
          "name": "tokenId",
          "type": "uint256"
        },
        {
          "indexed": false,
          "internalType": "string",
          "name": "tokenURI",
          "type": "string"
        },
        {
          "indexed": false,
          "internalType": "address",
          "name": "owner",
          "type": "address"
        }
      ],
      "name": "NFTMinted",
      "type": "event"
    },
    {
      "anonymous": false,
      "inputs": [
        {
          "indexed": true,
          "internalType": "uint256",
          "name": "proposalId",
          "type": "uint256"
        },
        {
          "indexed": false,
          "internalType": "string",
          "name": "tokenURI",
          "type": "string"
        },
        {
          "indexed": false,
          "internalType": "address",
          "name": "proposer",
          "type": "address"
        }
      ],
      "name": "NFTProposed",
      "type": "event"
    },
    {
      "anonymous": false,
      "inputs": [
        {
          "indexed": true,
          "internalType": "address",
          "name": "from",
          "type": "address"
        },
        {
          "indexed": true,
          "internalType": "address",
          "name": "to",
          "type": "address"
        },
        {
          "indexed": true,
          "internalType": "uint256",
          "name": "tokenId",
          "type": "uint256"
        }
      ],
      "name": "Transfer",
      "type": "event"
    },
    {
      "anonymous": false,
      "inputs": [
        {
          "indexed": true,
          "internalType": "uint256",
          "name": "proposalId",
          "type": "uint256"
        },
        {
          "indexed": true,
          "internalType": "address",
          "name": "voter",
          "type": "address"
        },
        {
          "indexed": false,
          "internalType": "string",
          "name": "tokenURI",
          "type": "string"
        },
        {
          "indexed": false,
          "internalType": "uint256",
          "name": "amount",
          "type": "uint256"
        }
      ],
      "name": "Voted",
      "type": "event"
    },
    {
      "inputs": [
        {
          "internalType": "address",
          "name": "to",
          "type": "address"
        },
        {
          "internalType": "uint256",
          "name": "tokenId",
          "type": "uint256"
        }
      ],
      "name": "approve",
      "outputs": [],
      "stateMutability": "nonpayable",
      "type": "function"
    },
    {
      "inputs": [
        {
          "internalType": "address",
          "name": "owner",
          "type": "address"
        }
      ],
      "name": "balanceOf",
      "outputs": [
        {
          "internalType": "uint256",
          "name": "",
          "type": "uint256"
        }
      ],
      "stateMutability": "view",
      "type": "function"
    },
    {
      "inputs": [
        {
          "internalType": "uint256",
          "name": "tokenId",
          "type": "uint256"
        }
      ],
      "name": "getApproved",
      "outputs": [
        {
          "internalType": "address",
          "name": "",
          "type": "address"
        }
      ],
      "stateMutability": "view",
      "type": "function"
    },
    {
      "inputs": [],
      "name": "getProposeNFT",
      "outputs": [
        {
          "components": [
            {
              "internalType": "string",
              "name": "tokenURI",
              "type": "string"
            },
            {
              "internalType": "address",
              "name": "proposer",
              "type": "address"
            },
            {
              "internalType": "uint256",
              "name": "votes",
              "type": "uint256"
            },
            {
              "internalType": "bool",
              "name": "minted",
              "type": "bool"
            }
          ],
          "internalType": "struct DAONFT.NFTProposal[]",
          "name": "",
          "type": "tuple[]"
        }
      ],
      "stateMutability": "view",
      "type": "function"
    },
    {
      "inputs": [],
      "name": "governanceToken",
      "outputs": [
        {
          "internalType": "contract IERC20",
          "name": "",
          "type": "address"
        }
      ],
      "stateMutability": "view",
      "type": "function"
    },
    {
      "inputs": [
        {
          "internalType": "uint256",
          "name": "",
          "type": "uint256"
        },
        {
          "internalType": "address",
          "name": "",
          "type": "address"
        }
      ],
      "name": "hasVoted",
      "outputs": [
        {
          "internalType": "bool",
          "name": "",
          "type": "bool"
        }
      ],
      "stateMutability": "view",
      "type": "function"
    },
    {
      "inputs": [
        {
          "internalType": "address",
          "name": "owner",
          "type": "address"
        },
        {
          "internalType": "address",
          "name": "operator",
          "type": "address"
        }
      ],
      "name": "isApprovedForAll",
      "outputs": [
        {
          "internalType": "bool",
          "name": "",
          "type": "bool"
        }
      ],
      "stateMutability": "view",
      "type": "function"
    },
    {
      "inputs": [],
      "name": "name",
      "outputs": [
        {
          "internalType": "string",
          "name": "",
          "type": "string"
        }
      ],
      "stateMutability": "view",
      "type": "function"
    },
    {
      "inputs": [
        {
          "internalType": "uint256",
          "name": "",
          "type": "uint256"
        }
      ],
      "name": "nftProposals",
      "outputs": [
        {
          "internalType": "string",
          "name": "tokenURI",
          "type": "string"
        },
        {
          "internalType": "address",
          "name": "proposer",
          "type": "address"
        },
        {
          "internalType": "uint256",
          "name": "votes",
          "type": "uint256"
        },
        {
          "internalType": "bool",
          "name": "minted",
          "type": "bool"
        }
      ],
      "stateMutability": "view",
      "type": "function"
    },
    {
      "inputs": [
        {
          "internalType": "uint256",
          "name": "tokenId",
          "type": "uint256"
        }
      ],
      "name": "ownerOf",
      "outputs": [
        {
          "internalType": "address",
          "name": "",
          "type": "address"
        }
      ],
      "stateMutability": "view",
      "type": "function"
    },
    {
      "inputs": [],
      "name": "proposalCounter",
      "outputs": [
        {
          "internalType": "uint256",
          "name": "",
          "type": "uint256"
        }
      ],
      "stateMutability": "view",
      "type": "function"
    },
    {
      "inputs": [
        {
          "internalType": "string",
          "name": "_tokenURI",
          "type": "string"
        }
      ],
      "name": "proposeNFT",
      "outputs": [],
      "stateMutability": "nonpayable",
      "type": "function"
    },
    {
      "inputs": [],
      "name": "requiredVotes",
      "outputs": [
        {
          "internalType": "uint256",
          "name": "",
          "type": "uint256"
        }
      ],
      "stateMutability": "view",
      "type": "function"
    },
    {
      "inputs": [
        {
          "internalType": "address",
          "name": "from",
          "type": "address"
        },
        {
          "internalType": "address",
          "name": "to",
          "type": "address"
        },
        {
          "internalType": "uint256",
          "name": "tokenId",
          "type": "uint256"
        }
      ],
      "name": "safeTransferFrom",
      "outputs": [],
      "stateMutability": "nonpayable",
      "type": "function"
    },
    {
      "inputs": [
        {
          "internalType": "address",
          "name": "from",
          "type": "address"
        },
        {
          "internalType": "address",
          "name": "to",
          "type": "address"
        },
        {
          "internalType": "uint256",
          "name": "tokenId",
          "type": "uint256"
        },
        {
          "internalType": "bytes",
          "name": "data",
          "type": "bytes"
        }
      ],
      "name": "safeTransferFrom",
      "outputs": [],
      "stateMutability": "nonpayable",
      "type": "function"
    },
    {
      "inputs": [
        {
          "internalType": "address",
          "name": "operator",
          "type": "address"
        },
        {
          "internalType": "bool",
          "name": "approved",
          "type": "bool"
        }
      ],
      "name": "setApprovalForAll",
      "outputs": [],
      "stateMutability": "nonpayable",
      "type": "function"
    },
    {
      "inputs": [
        {
          "internalType": "bytes4",
          "name": "interfaceId",
          "type": "bytes4"
        }
      ],
      "name": "supportsInterface",
      "outputs": [
        {
          "internalType": "bool",
          "name": "",
          "type": "bool"
        }
      ],
      "stateMutability": "view",
      "type": "function"
    },
    {
      "inputs": [],
      "name": "symbol",
      "outputs": [
        {
          "internalType": "string",
          "name": "",
          "type": "string"
        }
      ],
      "stateMutability": "view",
      "type": "function"
    },
    {
      "inputs": [
        {
          "internalType": "uint256",
          "name": "tokenId",
          "type": "uint256"
        }
      ],
      "name": "tokenURI",
      "outputs": [
        {
          "internalType": "string",
          "name": "",
          "type": "string"
        }
      ],
      "stateMutability": "view",
      "type": "function"
    },
    {
      "inputs": [
        {
          "internalType": "address",
          "name": "from",
          "type": "address"
        },
        {
          "internalType": "address",
          "name": "to",
          "type": "address"
        },
        {
          "internalType": "uint256",
          "name": "tokenId",
          "type": "uint256"
        }
      ],
      "name": "transferFrom",
      "outputs": [],
      "stateMutability": "nonpayable",
      "type": "function"
    },
    {
      "inputs": [
        {
          "internalType": "uint256",
          "name": "proposalId",
          "type": "uint256"
        }
      ],
      "name": "voteForNFT",
      "outputs": [],
      "stateMutability": "nonpayable",
      "type": "function"
    }
  ],
  "bytecode": "0x6080604052683635c9adc5dea00000600b5534801561001d57600080fd5b50604051613762380380613762833981810160405281019061003f9190610187565b6040518060400160405280600681526020017f44414f4e465400000000000000000000000000000000000000000000000000008152506040518060400160405280600481526020017f444e46540000000000000000000000000000000000000000000000000000000081525081600090816100ba9190610404565b5080600190816100ca9190610404565b50505080600660006101000a81548173ffffffffffffffffffffffffffffffffffffffff021916908373ffffffffffffffffffffffffffffffffffffffff16021790555060006007819055506000600a81905550506104d6565b600080fd5b600073ffffffffffffffffffffffffffffffffffffffff82169050919050565b600061015482610129565b9050919050565b61016481610149565b811461016f57600080fd5b50565b6000815190506101818161015b565b92915050565b60006020828403121561019d5761019c610124565b5b60006101ab84828501610172565b91505092915050565b600081519050919050565b7f4e487b7100000000000000000000000000000000000000000000000000000000600052604160045260246000fd5b7f4e487b7100000000000000000000000000000000000000000000000000000000600052602260045260246000fd5b6000600282049050600182168061023557607f821691505b602082108103610248576102476101ee565b5b50919050565b60008190508160005260206000209050919050565b60006020601f8301049050919050565b600082821b905092915050565b6000600883026102b07fffffffffffffffffffffffffffffffffffffffffffffffffffffffffffffffff82610273565b6102ba8683610273565b95508019841693508086168417925050509392505050565b6000819050919050565b6000819050919050565b60006103016102fc6102f7846102d2565b6102dc565b6102d2565b9050919050565b6000819050919050565b61031b836102e6565b61032f61032782610308565b848454610280565b825550505050565b600090565b610344610337565b61034f818484610312565b505050565b5b818110156103735761036860008261033c565b600181019050610355565b5050565b601f8211156103b8576103898161024e565b61039284610263565b810160208510156103a1578190505b6103b56103ad85610263565b830182610354565b50505b505050565b600082821c905092915050565b60006103db600019846008026103bd565b1980831691505092915050565b60006103f483836103ca565b9150826002028217905092915050565b61040d826101b4565b67ffffffffffffffff811115610426576104256101bf565b5b610430825461021d565b61043b828285610377565b600060209050601f83116001811461046e576000841561045c578287015190505b61046685826103e8565b8655506104ce565b601f19841661047c8661024e565b60005b828110156104a45784890151825560018201915060208501945060208101905061047f565b868310156104c157848901516104bd601f8916826103ca565b8355505b6001600288020188555050505b505050505050565b61327d806104e56000396000f3fe608060405234801561001057600080fd5b50600436106101375760003560e01c80636352211e116100b8578063a22cb4651161007c578063a22cb46514610363578063b88d4fde1461037f578063bd31a4d81461039b578063c87b56dd146103b9578063e985e9c5146103e9578063f96dae0a1461041957610137565b80636352211e146102ad57806369aecfd7146102dd57806370a08231146102f957806389ba52c41461032957806395d89b411461034557610137565b806323b872dd116100ff57806323b872dd146101f457806342842e0e14610210578063438596321461022c57806354ab95881461025c578063555356ab1461028f57610137565b806301ffc9a71461013c57806306fdde031461016c578063081812fc1461018a578063095ea7b3146101ba5780630c0512e9146101d6575b600080fd5b610156600480360381019061015191906120c5565b610437565b604051610163919061210d565b60405180910390f35b610174610519565b60405161018191906121b8565b60405180910390f35b6101a4600480360381019061019f9190612210565b6105ab565b6040516101b1919061227e565b60405180910390f35b6101d460048036038101906101cf91906122c5565b6105c7565b005b6101de6105dd565b6040516101eb9190612314565b60405180910390f35b61020e6004803603810190610209919061232f565b6105e3565b005b61022a6004803603810190610225919061232f565b6106e5565b005b61024660048036038101906102419190612382565b610705565b604051610253919061210d565b60405180910390f35b61027660048036038101906102719190612210565b610734565b60405161028694939291906123c2565b60405180910390f35b610297610819565b6040516102a491906125aa565b60405180910390f35b6102c760048036038101906102c29190612210565b610a63565b6040516102d4919061227e565b60405180910390f35b6102f760048036038101906102f29190612701565b610a75565b005b610313600480360381019061030e919061274a565b610ba6565b6040516103209190612314565b60405180910390f35b610343600480360381019061033e9190612210565b610c60565b005b61034d610faf565b60405161035a91906121b8565b60405180910390f35b61037d600480360381019061037891906127a3565b611041565b005b61039960048036038101906103949190612884565b611057565b005b6103a361107c565b6040516103b09190612314565b60405180910390f35b6103d360048036038101906103ce9190612210565b611082565b6040516103e091906121b8565b60405180910390f35b61040360048036038101906103fe9190612907565b6110eb565b604051610410919061210d565b60405180910390f35b61042161117f565b60405161042e91906129a6565b60405180910390f35b60007f80ac58cd000000000000000000000000000000000000000000000000000000007bffffffffffffffffffffffffffffffffffffffffffffffffffffffff1916827bffffffffffffffffffffffffffffffffffffffffffffffffffffffff1916148061050257507f5b5e139f000000000000000000000000000000000000000000000000000000007bffffffffffffffffffffffffffffffffffffffffffffffffffffffff1916827bffffffffffffffffffffffffffffffffffffffffffffffffffffffff1916145b806105125750610511826111a5565b5b9050919050565b606060008054610528906129f0565b80601f0160208091040260200160405190810160405280929190818152602001828054610554906129f0565b80156105a15780601f10610576576101008083540402835291602001916105a1565b820191906000526020600020905b81548152906001019060200180831161058457829003601f168201915b5050505050905090565b60006105b68261120f565b506105c082611297565b9050919050565b6105d982826105d46112d4565b6112dc565b5050565b600a5481565b600073ffffffffffffffffffffffffffffffffffffffff168273ffffffffffffffffffffffffffffffffffffffff16036106555760006040517f64a0ae9200000000000000000000000000000000000000000000000000000000815260040161064c919061227e565b60405180910390fd5b600061066983836106646112d4565b6112ee565b90508373ffffffffffffffffffffffffffffffffffffffff168173ffffffffffffffffffffffffffffffffffffffff16146106df578382826040517f64283d7b0000000000000000000000000000000000000000000000000000000081526004016106d693929190612a21565b60405180910390fd5b50505050565b61070083838360405180602001604052806000815250611057565b505050565b60096020528160005260406000206020528060005260406000206000915091509054906101000a900460ff1681565b6008602052806000526040600020600091509050806000018054610757906129f0565b80601f0160208091040260200160405190810160405280929190818152602001828054610783906129f0565b80156107d05780601f106107a5576101008083540402835291602001916107d0565b820191906000526020600020905b8154815290600101906020018083116107b357829003601f168201915b5050505050908060010160009054906101000a900473ffffffffffffffffffffffffffffffffffffffff16908060020154908060030160009054906101000a900460ff16905084565b60606000600a5467ffffffffffffffff811115610839576108386125d6565b5b60405190808252806020026020018201604052801561087257816020015b61085f612019565b8152602001906001900390816108575790505b50905060005b600a54811015610a5b57600073ffffffffffffffffffffffffffffffffffffffff16600860006001846108ab9190612a87565b815260200190815260200160002060010160009054906101000a900473ffffffffffffffffffffffffffffffffffffffff1673ffffffffffffffffffffffffffffffffffffffff1614610a4e57600860006001836109099190612a87565b8152602001908152602001600020604051806080016040529081600082018054610932906129f0565b80601f016020809104026020016040519081016040528092919081815260200182805461095e906129f0565b80156109ab5780601f10610980576101008083540402835291602001916109ab565b820191906000526020600020905b81548152906001019060200180831161098e57829003601f168201915b505050505081526020016001820160009054906101000a900473ffffffffffffffffffffffffffffffffffffffff1673ffffffffffffffffffffffffffffffffffffffff1673ffffffffffffffffffffffffffffffffffffffff168152602001600282015481526020016003820160009054906101000a900460ff161515151581525050828281518110610a4257610a41612abb565b5b60200260200101819052505b8080600101915050610878565b508091505090565b6000610a6e8261120f565b9050919050565b600a6000815480929190610a8890612aea565b919050555060405180608001604052808281526020013373ffffffffffffffffffffffffffffffffffffffff168152602001600081526020016000151581525060086000600a5481526020019081526020016000206000820151816000019081610af29190612cd4565b5060208201518160010160006101000a81548173ffffffffffffffffffffffffffffffffffffffff021916908373ffffffffffffffffffffffffffffffffffffffff1602179055506040820151816002015560608201518160030160006101000a81548160ff021916908315150217905550905050600a547f66fde1e5134898d49de0f081d598cf7d8fba2432595667ac3cbef6dd60dc01158233604051610b9b929190612da6565b60405180910390a250565b60008073ffffffffffffffffffffffffffffffffffffffff168273ffffffffffffffffffffffffffffffffffffffff1603610c195760006040517f89c62b64000000000000000000000000000000000000000000000000000000008152600401610c10919061227e565b60405180910390fd5b600360008373ffffffffffffffffffffffffffffffffffffffff1673ffffffffffffffffffffffffffffffffffffffff168152602001908152602001600020549050919050565b600073ffffffffffffffffffffffffffffffffffffffff166008600083815260200190815260200160002060010160009054906101000a900473ffffffffffffffffffffffffffffffffffffffff1673ffffffffffffffffffffffffffffffffffffffff1603610d05576040517f08c379a0000000000000000000000000000000000000000000000000000000008152600401610cfc90612e22565b60405180910390fd5b6009600082815260200190815260200160002060003373ffffffffffffffffffffffffffffffffffffffff1673ffffffffffffffffffffffffffffffffffffffff16815260200190815260200160002060009054906101000a900460ff1615610da3576040517f08c379a0000000000000000000000000000000000000000000000000000000008152600401610d9a90612e8e565b60405180910390fd5b6000600660009054906101000a900473ffffffffffffffffffffffffffffffffffffffff1673ffffffffffffffffffffffffffffffffffffffff166370a08231336040518263ffffffff1660e01b8152600401610e00919061227e565b602060405180830381865afa158015610e1d573d6000803e3d6000fd5b505050506040513d601f19601f82011682018060405250810190610e419190612ec3565b905060008111610e86576040517f08c379a0000000000000000000000000000000000000000000000000000000008152600401610e7d90612f3c565b60405180910390fd5b80600860008481526020019081526020016000206002016000828254610eac9190612a87565b9250508190555060016009600084815260200190815260200160002060003373ffffffffffffffffffffffffffffffffffffffff1673ffffffffffffffffffffffffffffffffffffffff16815260200190815260200160002060006101000a81548160ff0219169083151502179055503373ffffffffffffffffffffffffffffffffffffffff16827f3ae89ec44d6750209e1164a2659a766e3cfe3476e908a19cb5e928974ef5e4ec6008600086815260200190815260200160002060000184604051610f7a929190612fe0565b60405180910390a3600b54600860008481526020019081526020016000206002015410610fab57610faa82611508565b5b5050565b606060018054610fbe906129f0565b80601f0160208091040260200160405190810160405280929190818152602001828054610fea906129f0565b80156110375780601f1061100c57610100808354040283529160200191611037565b820191906000526020600020905b81548152906001019060200180831161101a57829003601f168201915b5050505050905090565b61105361104c6112d4565b8383611641565b5050565b6110628484846105e3565b61107661106d6112d4565b858585856117b0565b50505050565b600b5481565b606061108d8261120f565b506000611098611961565b905060008151116110b857604051806020016040528060008152506110e3565b806110c284611978565b6040516020016110d392919061304c565b6040516020818303038152906040525b915050919050565b6000600560008473ffffffffffffffffffffffffffffffffffffffff1673ffffffffffffffffffffffffffffffffffffffff16815260200190815260200160002060008373ffffffffffffffffffffffffffffffffffffffff1673ffffffffffffffffffffffffffffffffffffffff16815260200190815260200160002060009054906101000a900460ff16905092915050565b600660009054906101000a900473ffffffffffffffffffffffffffffffffffffffff1681565b60007f01ffc9a7000000000000000000000000000000000000000000000000000000007bffffffffffffffffffffffffffffffffffffffffffffffffffffffff1916827bffffffffffffffffffffffffffffffffffffffffffffffffffffffff1916149050919050565b60008061121b83611a46565b9050600073ffffffffffffffffffffffffffffffffffffffff168173ffffffffffffffffffffffffffffffffffffffff160361128e57826040517f7e2732890000000000000000000000000000000000000000000000000000000081526004016112859190612314565b60405180910390fd5b80915050919050565b60006004600083815260200190815260200160002060009054906101000a900473ffffffffffffffffffffffffffffffffffffffff169050919050565b600033905090565b6112e98383836001611a83565b505050565b6000806112fa84611a46565b9050600073ffffffffffffffffffffffffffffffffffffffff168373ffffffffffffffffffffffffffffffffffffffff161461133c5761133b818486611c48565b5b600073ffffffffffffffffffffffffffffffffffffffff168173ffffffffffffffffffffffffffffffffffffffff16146113cd5761137e600085600080611a83565b6001600360008373ffffffffffffffffffffffffffffffffffffffff1673ffffffffffffffffffffffffffffffffffffffff168152602001908152602001600020600082825403925050819055505b600073ffffffffffffffffffffffffffffffffffffffff168573ffffffffffffffffffffffffffffffffffffffff1614611450576001600360008773ffffffffffffffffffffffffffffffffffffffff1673ffffffffffffffffffffffffffffffffffffffff168152602001908152602001600020600082825401925050819055505b846002600086815260200190815260200160002060006101000a81548173ffffffffffffffffffffffffffffffffffffffff021916908373ffffffffffffffffffffffffffffffffffffffff160217905550838573ffffffffffffffffffffffffffffffffffffffff168273ffffffffffffffffffffffffffffffffffffffff167fddf252ad1be2c89b69c2b068fc378daa952ba7f163c4a11628f55a4df523b3ef60405160405180910390a4809150509392505050565b60006008600083815260200190815260200160002090508060030160009054906101000a900460ff1615611571576040517f08c379a0000000000000000000000000000000000000000000000000000000008152600401611568906130bc565b60405180910390fd5b6007600081548092919061158490612aea565b9190505550600060075490506115be8260010160009054906101000a900473ffffffffffffffffffffffffffffffffffffffff1682611d0c565b60018260030160006101000a81548160ff021916908315150217905550807f411b345259a1495602cee098e5f501eb3412e0701c10b173ecd8ba7b585974a9836000018460010160009054906101000a900473ffffffffffffffffffffffffffffffffffffffff166040516116349291906130dc565b60405180910390a2505050565b600073ffffffffffffffffffffffffffffffffffffffff168273ffffffffffffffffffffffffffffffffffffffff16036116b257816040517f5b08ba180000000000000000000000000000000000000000000000000000000081526004016116a9919061227e565b60405180910390fd5b80600560008573ffffffffffffffffffffffffffffffffffffffff1673ffffffffffffffffffffffffffffffffffffffff16815260200190815260200160002060008473ffffffffffffffffffffffffffffffffffffffff1673ffffffffffffffffffffffffffffffffffffffff16815260200190815260200160002060006101000a81548160ff0219169083151502179055508173ffffffffffffffffffffffffffffffffffffffff168373ffffffffffffffffffffffffffffffffffffffff167f17307eab39ab6107e8899845ad3d59bd9653f200f220920489ca2b5937696c31836040516117a3919061210d565b60405180910390a3505050565b60008373ffffffffffffffffffffffffffffffffffffffff163b111561195a578273ffffffffffffffffffffffffffffffffffffffff1663150b7a02868685856040518563ffffffff1660e01b815260040161180f9493929190613161565b6020604051808303816000875af192505050801561184b57506040513d601f19601f8201168201806040525081019061184891906131c2565b60015b6118cf573d806000811461187b576040519150601f19603f3d011682016040523d82523d6000602084013e611880565b606091505b5060008151036118c757836040517f64a0ae920000000000000000000000000000000000000000000000000000000081526004016118be919061227e565b60405180910390fd5b805181602001fd5b63150b7a0260e01b7bffffffffffffffffffffffffffffffffffffffffffffffffffffffff1916817bffffffffffffffffffffffffffffffffffffffffffffffffffffffff19161461195857836040517f64a0ae9200000000000000000000000000000000000000000000000000000000815260040161194f919061227e565b60405180910390fd5b505b5050505050565b606060405180602001604052806000815250905090565b60606000600161198784611e05565b01905060008167ffffffffffffffff8111156119a6576119a56125d6565b5b6040519080825280601f01601f1916602001820160405280156119d85781602001600182028036833780820191505090505b509050600082602001820190505b600115611a3b578080600190039150507f3031323334353637383961626364656600000000000000000000000000000000600a86061a8153600a8581611a2f57611a2e6131ef565b5b049450600085036119e6575b819350505050919050565b60006002600083815260200190815260200160002060009054906101000a900473ffffffffffffffffffffffffffffffffffffffff169050919050565b8080611abc5750600073ffffffffffffffffffffffffffffffffffffffff168273ffffffffffffffffffffffffffffffffffffffff1614155b15611bf0576000611acc8461120f565b9050600073ffffffffffffffffffffffffffffffffffffffff168373ffffffffffffffffffffffffffffffffffffffff1614158015611b3757508273ffffffffffffffffffffffffffffffffffffffff168173ffffffffffffffffffffffffffffffffffffffff1614155b8015611b4a5750611b4881846110eb565b155b15611b8c57826040517fa9fbf51f000000000000000000000000000000000000000000000000000000008152600401611b83919061227e565b60405180910390fd5b8115611bee57838573ffffffffffffffffffffffffffffffffffffffff168273ffffffffffffffffffffffffffffffffffffffff167f8c5be1e5ebec7d5bd14f71427d1e84f3dd0314c0f7b2291e5b200ac8c7c3b92560405160405180910390a45b505b836004600085815260200190815260200160002060006101000a81548173ffffffffffffffffffffffffffffffffffffffff021916908373ffffffffffffffffffffffffffffffffffffffff16021790555050505050565b611c53838383611f58565b611d0757600073ffffffffffffffffffffffffffffffffffffffff168373ffffffffffffffffffffffffffffffffffffffff1603611cc857806040517f7e273289000000000000000000000000000000000000000000000000000000008152600401611cbf9190612314565b60405180910390fd5b81816040517f177e802f000000000000000000000000000000000000000000000000000000008152600401611cfe92919061321e565b60405180910390fd5b505050565b600073ffffffffffffffffffffffffffffffffffffffff168273ffffffffffffffffffffffffffffffffffffffff1603611d7e5760006040517f64a0ae92000000000000000000000000000000000000000000000000000000008152600401611d75919061227e565b60405180910390fd5b6000611d8c838360006112ee565b9050600073ffffffffffffffffffffffffffffffffffffffff168173ffffffffffffffffffffffffffffffffffffffff1614611e005760006040517f73c6ac6e000000000000000000000000000000000000000000000000000000008152600401611df7919061227e565b60405180910390fd5b505050565b600080600090507a184f03e93ff9f4daa797ed6e38ed64bf6a1f0100000000000000008310611e63577a184f03e93ff9f4daa797ed6e38ed64bf6a1f0100000000000000008381611e5957611e586131ef565b5b0492506040810190505b6d04ee2d6d415b85acef81000000008310611ea0576d04ee2d6d415b85acef81000000008381611e9657611e956131ef565b5b0492506020810190505b662386f26fc100008310611ecf57662386f26fc100008381611ec557611ec46131ef565b5b0492506010810190505b6305f5e1008310611ef8576305f5e1008381611eee57611eed6131ef565b5b0492506008810190505b6127108310611f1d576127108381611f1357611f126131ef565b5b0492506004810190505b60648310611f405760648381611f3657611f356131ef565b5b0492506002810190505b600a8310611f4f576001810190505b80915050919050565b60008073ffffffffffffffffffffffffffffffffffffffff168373ffffffffffffffffffffffffffffffffffffffff161415801561201057508273ffffffffffffffffffffffffffffffffffffffff168473ffffffffffffffffffffffffffffffffffffffff161480611fd15750611fd084846110eb565b5b8061200f57508273ffffffffffffffffffffffffffffffffffffffff16611ff783611297565b73ffffffffffffffffffffffffffffffffffffffff16145b5b90509392505050565b604051806080016040528060608152602001600073ffffffffffffffffffffffffffffffffffffffff168152602001600081526020016000151581525090565b6000604051905090565b600080fd5b600080fd5b60007fffffffff0000000000000000000000000000000000000000000000000000000082169050919050565b6120a28161206d565b81146120ad57600080fd5b50565b6000813590506120bf81612099565b92915050565b6000602082840312156120db576120da612063565b5b60006120e9848285016120b0565b91505092915050565b60008115159050919050565b612107816120f2565b82525050565b600060208201905061212260008301846120fe565b92915050565b600081519050919050565b600082825260208201905092915050565b60005b83811015612162578082015181840152602081019050612147565b60008484015250505050565b6000601f19601f8301169050919050565b600061218a82612128565b6121948185612133565b93506121a4818560208601612144565b6121ad8161216e565b840191505092915050565b600060208201905081810360008301526121d2818461217f565b905092915050565b6000819050919050565b6121ed816121da565b81146121f857600080fd5b50565b60008135905061220a816121e4565b92915050565b60006020828403121561222657612225612063565b5b6000612234848285016121fb565b91505092915050565b600073ffffffffffffffffffffffffffffffffffffffff82169050919050565b60006122688261223d565b9050919050565b6122788161225d565b82525050565b6000602082019050612293600083018461226f565b92915050565b6122a28161225d565b81146122ad57600080fd5b50565b6000813590506122bf81612299565b92915050565b600080604083850312156122dc576122db612063565b5b60006122ea858286016122b0565b92505060206122fb858286016121fb565b9150509250929050565b61230e816121da565b82525050565b60006020820190506123296000830184612305565b92915050565b60008060006060848603121561234857612347612063565b5b6000612356868287016122b0565b9350506020612367868287016122b0565b9250506040612378868287016121fb565b9150509250925092565b6000806040838503121561239957612398612063565b5b60006123a7858286016121fb565b92505060206123b8858286016122b0565b9150509250929050565b600060808201905081810360008301526123dc818761217f565b90506123eb602083018661226f565b6123f86040830185612305565b61240560608301846120fe565b95945050505050565b600081519050919050565b600082825260208201905092915050565b6000819050602082019050919050565b600082825260208201905092915050565b600061245682612128565b612460818561243a565b9350612470818560208601612144565b6124798161216e565b840191505092915050565b61248d8161225d565b82525050565b61249c816121da565b82525050565b6124ab816120f2565b82525050565b600060808301600083015184820360008601526124ce828261244b565b91505060208301516124e36020860182612484565b5060408301516124f66040860182612493565b50606083015161250960608601826124a2565b508091505092915050565b600061252083836124b1565b905092915050565b6000602082019050919050565b60006125408261240e565b61254a8185612419565b93508360208202850161255c8561242a565b8060005b8581101561259857848403895281516125798582612514565b945061258483612528565b925060208a01995050600181019050612560565b50829750879550505050505092915050565b600060208201905081810360008301526125c48184612535565b905092915050565b600080fd5b600080fd5b7f4e487b7100000000000000000000000000000000000000000000000000000000600052604160045260246000fd5b61260e8261216e565b810181811067ffffffffffffffff8211171561262d5761262c6125d6565b5b80604052505050565b6000612640612059565b905061264c8282612605565b919050565b600067ffffffffffffffff82111561266c5761266b6125d6565b5b6126758261216e565b9050602081019050919050565b82818337600083830152505050565b60006126a461269f84612651565b612636565b9050828152602081018484840111156126c0576126bf6125d1565b5b6126cb848285612682565b509392505050565b600082601f8301126126e8576126e76125cc565b5b81356126f8848260208601612691565b91505092915050565b60006020828403121561271757612716612063565b5b600082013567ffffffffffffffff81111561273557612734612068565b5b612741848285016126d3565b91505092915050565b6000602082840312156127605761275f612063565b5b600061276e848285016122b0565b91505092915050565b612780816120f2565b811461278b57600080fd5b50565b60008135905061279d81612777565b92915050565b600080604083850312156127ba576127b9612063565b5b60006127c8858286016122b0565b92505060206127d98582860161278e565b9150509250929050565b600067ffffffffffffffff8211156127fe576127fd6125d6565b5b6128078261216e565b9050602081019050919050565b6000612827612822846127e3565b612636565b905082815260208101848484011115612843576128426125d1565b5b61284e848285612682565b509392505050565b600082601f83011261286b5761286a6125cc565b5b813561287b848260208601612814565b91505092915050565b6000806000806080858703121561289e5761289d612063565b5b60006128ac878288016122b0565b94505060206128bd878288016122b0565b93505060406128ce878288016121fb565b925050606085013567ffffffffffffffff8111156128ef576128ee612068565b5b6128fb87828801612856565b91505092959194509250565b6000806040838503121561291e5761291d612063565b5b600061292c858286016122b0565b925050602061293d858286016122b0565b9150509250929050565b6000819050919050565b600061296c6129676129628461223d565b612947565b61223d565b9050919050565b600061297e82612951565b9050919050565b600061299082612973565b9050919050565b6129a081612985565b82525050565b60006020820190506129bb6000830184612997565b92915050565b7f4e487b7100000000000000000000000000000000000000000000000000000000600052602260045260246000fd5b60006002820490506001821680612a0857607f821691505b602082108103612a1b57612a1a6129c1565b5b50919050565b6000606082019050612a36600083018661226f565b612a436020830185612305565b612a50604083018461226f565b949350505050565b7f4e487b7100000000000000000000000000000000000000000000000000000000600052601160045260246000fd5b6000612a92826121da565b9150612a9d836121da565b9250828201905080821115612ab557612ab4612a58565b5b92915050565b7f4e487b7100000000000000000000000000000000000000000000000000000000600052603260045260246000fd5b6000612af5826121da565b91507fffffffffffffffffffffffffffffffffffffffffffffffffffffffffffffffff8203612b2757612b26612a58565b5b600182019050919050565b60008190508160005260206000209050919050565b60006020601f8301049050919050565b600082821b905092915050565b600060088302612b947fffffffffffffffffffffffffffffffffffffffffffffffffffffffffffffffff82612b57565b612b9e8683612b57565b95508019841693508086168417925050509392505050565b6000612bd1612bcc612bc7846121da565b612947565b6121da565b9050919050565b6000819050919050565b612beb83612bb6565b612bff612bf782612bd8565b848454612b64565b825550505050565b600090565b612c14612c07565b612c1f818484612be2565b505050565b5b81811015612c4357612c38600082612c0c565b600181019050612c25565b5050565b601f821115612c8857612c5981612b32565b612c6284612b47565b81016020851015612c71578190505b612c85612c7d85612b47565b830182612c24565b50505b505050565b600082821c905092915050565b6000612cab60001984600802612c8d565b1980831691505092915050565b6000612cc48383612c9a565b9150826002028217905092915050565b612cdd82612128565b67ffffffffffffffff811115612cf657612cf56125d6565b5b612d0082546129f0565b612d0b828285612c47565b600060209050601f831160018114612d3e5760008415612d2c578287015190505b612d368582612cb8565b865550612d9e565b601f198416612d4c86612b32565b60005b82811015612d7457848901518255600182019150602085019450602081019050612d4f565b86831015612d915784890151612d8d601f891682612c9a565b8355505b6001600288020188555050505b505050505050565b60006040820190508181036000830152612dc0818561217f565b9050612dcf602083018461226f565b9392505050565b7f50726f706f73616c20646f6573206e6f74206578697374000000000000000000600082015250565b6000612e0c601783612133565b9150612e1782612dd6565b602082019050919050565b60006020820190508181036000830152612e3b81612dff565b9050919050565b7f416c726561647920766f74656400000000000000000000000000000000000000600082015250565b6000612e78600d83612133565b9150612e8382612e42565b602082019050919050565b60006020820190508181036000830152612ea781612e6b565b9050919050565b600081519050612ebd816121e4565b92915050565b600060208284031215612ed957612ed8612063565b5b6000612ee784828501612eae565b91505092915050565b7f4e6f20676f7665726e616e636520746f6b656e73000000000000000000000000600082015250565b6000612f26601483612133565b9150612f3182612ef0565b602082019050919050565b60006020820190508181036000830152612f5581612f19565b9050919050565b60008154612f69816129f0565b612f738186612133565b94506001821660008114612f8e5760018114612fa457612fd7565b60ff198316865281151560200286019350612fd7565b612fad85612b32565b60005b83811015612fcf57815481890152600182019150602081019050612fb0565b808801955050505b50505092915050565b60006040820190508181036000830152612ffa8185612f5c565b90506130096020830184612305565b9392505050565b600081905092915050565b600061302682612128565b6130308185613010565b9350613040818560208601612144565b80840191505092915050565b6000613058828561301b565b9150613064828461301b565b91508190509392505050565b7f416c7265616479206d696e746564000000000000000000000000000000000000600082015250565b60006130a6600e83612133565b91506130b182613070565b602082019050919050565b600060208201905081810360008301526130d581613099565b9050919050565b600060408201905081810360008301526130f68185612f5c565b9050613105602083018461226f565b9392505050565b600081519050919050565b600082825260208201905092915050565b60006131338261310c565b61313d8185613117565b935061314d818560208601612144565b6131568161216e565b840191505092915050565b6000608082019050613176600083018761226f565b613183602083018661226f565b6131906040830185612305565b81810360608301526131a28184613128565b905095945050505050565b6000815190506131bc81612099565b92915050565b6000602082840312156131d8576131d7612063565b5b60006131e6848285016131ad565b91505092915050565b7f4e487b7100000000000000000000000000000000000000000000000000000000600052601260045260246000fd5b6000604082019050613233600083018561226f565b6132406020830184612305565b939250505056fea26469706673582212204cb4615d59a45e00fbaca0d7089e1f0e29afa4fa3f80762f5a0868b42be63be664736f6c634300081d0033",
  "linkReferences": {},
  "deployedLinkReferences": {}
}