{
  "_format": "hh-sol-artifact-1",
  "contractName": "DAONFT",
  "sourceName": "contracts/DAONFT.sol",
  "abi": [
    {
      "inputs": [
        {
          "internalType": "address",
          "name": "_governanceToken",
          "type": "address"
        },
        {
          "internalType": "address",
          "name": "_paymentToken",
          "type": "address"
        }
      ],
      "stateMutability": "nonpayable",
      "type": "constructor"
    },
    {
      "inputs": [
        {
          "internalType": "address",
          "name": "sender",
          "type": "address"
        },
        {
          "internalType": "uint256",
          "name": "tokenId",
          "type": "uint256"
        },
        {
          "internalType": "address",
          "name": "owner",
          "type": "address"
        }
      ],
      "name": "ERC721IncorrectOwner",
      "type": "error"
    },
    {
      "inputs": [
        {
          "internalType": "address",
          "name": "operator",
          "type": "address"
        },
        {
          "internalType": "uint256",
          "name": "tokenId",
          "type": "uint256"
        }
      ],
      "name": "ERC721InsufficientApproval",
      "type": "error"
    },
    {
      "inputs": [
        {
          "internalType": "address",
          "name": "approver",
          "type": "address"
        }
      ],
      "name": "ERC721InvalidApprover",
      "type": "error"
    },
    {
      "inputs": [
        {
          "internalType": "address",
          "name": "operator",
          "type": "address"
        }
      ],
      "name": "ERC721InvalidOperator",
      "type": "error"
    },
    {
      "inputs": [
        {
          "internalType": "address",
          "name": "owner",
          "type": "address"
        }
      ],
      "name": "ERC721InvalidOwner",
      "type": "error"
    },
    {
      "inputs": [
        {
          "internalType": "address",
          "name": "receiver",
          "type": "address"
        }
      ],
      "name": "ERC721InvalidReceiver",
      "type": "error"
    },
    {
      "inputs": [
        {
          "internalType": "address",
          "name": "sender",
          "type": "address"
        }
      ],
      "name": "ERC721InvalidSender",
      "type": "error"
    },
    {
      "inputs": [
        {
          "internalType": "uint256",
          "name": "tokenId",
          "type": "uint256"
        }
      ],
      "name": "ERC721NonexistentToken",
      "type": "error"
    },
    {
      "anonymous": false,
      "inputs": [
        {
          "indexed": true,
          "internalType": "address",
          "name": "owner",
          "type": "address"
        },
        {
          "indexed": true,
          "internalType": "address",
          "name": "approved",
          "type": "address"
        },
        {
          "indexed": true,
          "internalType": "uint256",
          "name": "tokenId",
          "type": "uint256"
        }
      ],
      "name": "Approval",
      "type": "event"
    },
    {
      "anonymous": false,
      "inputs": [
        {
          "indexed": true,
          "internalType": "address",
          "name": "owner",
          "type": "address"
        },
        {
          "indexed": true,
          "internalType": "address",
          "name": "operator",
          "type": "address"
        },
        {
          "indexed": false,
          "internalType": "bool",
          "name": "approved",
          "type": "bool"
        }
      ],
      "name": "ApprovalForAll",
      "type": "event"
    },
    {
      "anonymous": false,
      "inputs": [
        {
          "indexed": true,
          "internalType": "uint256",
          "name": "tokenId",
          "type": "uint256"
        },
        {
          "indexed": true,
          "internalType": "address",
          "name": "owner",
          "type": "address"
        },
        {
          "indexed": false,
          "internalType": "uint256",
          "name": "price",
          "type": "uint256"
        }
      ],
      "name": "NFTInSale",
      "type": "event"
    },
    {
      "anonymous": false,
      "inputs": [
        {
          "indexed": true,
          "internalType": "uint256",
          "name": "tokenId",
          "type": "uint256"
        },
        {
          "indexed": false,
          "internalType": "string",
          "name": "tokenURI",
          "type": "string"
        },
        {
          "indexed": false,
          "internalType": "address",
          "name": "owner",
          "type": "address"
        }
      ],
      "name": "NFTMinted",
      "type": "event"
    },
    {
      "anonymous": false,
      "inputs": [
        {
          "indexed": true,
          "internalType": "uint256",
          "name": "proposalId",
          "type": "uint256"
        },
        {
          "indexed": false,
          "internalType": "string",
          "name": "tokenURI",
          "type": "string"
        },
        {
          "indexed": false,
          "internalType": "address",
          "name": "proposer",
          "type": "address"
        }
      ],
      "name": "NFTProposed",
      "type": "event"
    },
    {
      "anonymous": false,
      "inputs": [
        {
          "indexed": true,
          "internalType": "uint256",
          "name": "tokenId",
          "type": "uint256"
        },
        {
          "indexed": true,
          "internalType": "address",
          "name": "buyer",
          "type": "address"
        },
        {
          "indexed": false,
          "internalType": "uint256",
          "name": "price",
          "type": "uint256"
        }
      ],
      "name": "NFTSold",
      "type": "event"
    },
    {
      "anonymous": false,
      "inputs": [
        {
          "indexed": true,
          "internalType": "address",
          "name": "from",
          "type": "address"
        },
        {
          "indexed": true,
          "internalType": "address",
          "name": "to",
          "type": "address"
        },
        {
          "indexed": true,
          "internalType": "uint256",
          "name": "tokenId",
          "type": "uint256"
        }
      ],
      "name": "Transfer",
      "type": "event"
    },
    {
      "anonymous": false,
      "inputs": [
        {
          "indexed": true,
          "internalType": "uint256",
          "name": "proposalId",
          "type": "uint256"
        },
        {
          "indexed": true,
          "internalType": "address",
          "name": "voter",
          "type": "address"
        },
        {
          "indexed": false,
          "internalType": "string",
          "name": "tokenURI",
          "type": "string"
        },
        {
          "indexed": false,
          "internalType": "uint256",
          "name": "amount",
          "type": "uint256"
        }
      ],
      "name": "Voted",
      "type": "event"
    },
    {
      "inputs": [
        {
          "internalType": "address",
          "name": "to",
          "type": "address"
        },
        {
          "internalType": "uint256",
          "name": "tokenId",
          "type": "uint256"
        }
      ],
      "name": "approve",
      "outputs": [],
      "stateMutability": "nonpayable",
      "type": "function"
    },
    {
      "inputs": [
        {
          "internalType": "address",
          "name": "owner",
          "type": "address"
        }
      ],
      "name": "balanceOf",
      "outputs": [
        {
          "internalType": "uint256",
          "name": "",
          "type": "uint256"
        }
      ],
      "stateMutability": "view",
      "type": "function"
    },
    {
      "inputs": [
        {
          "internalType": "uint256",
          "name": "tokenId",
          "type": "uint256"
        }
      ],
      "name": "buyNFT",
      "outputs": [],
      "stateMutability": "nonpayable",
      "type": "function"
    },
    {
      "inputs": [
        {
          "internalType": "uint256",
          "name": "tokenId",
          "type": "uint256"
        }
      ],
      "name": "getApproved",
      "outputs": [
        {
          "internalType": "address",
          "name": "",
          "type": "address"
        }
      ],
      "stateMutability": "view",
      "type": "function"
    },
    {
      "inputs": [],
      "name": "getProposeNFT",
      "outputs": [
        {
          "components": [
            {
              "internalType": "string",
              "name": "tokenURI",
              "type": "string"
            },
            {
              "internalType": "address",
              "name": "proposer",
              "type": "address"
            },
            {
              "internalType": "uint256",
              "name": "votes",
              "type": "uint256"
            },
            {
              "internalType": "bool",
              "name": "minted",
              "type": "bool"
            }
          ],
          "internalType": "struct DAONFT.NFTProposal[]",
          "name": "",
          "type": "tuple[]"
        }
      ],
      "stateMutability": "view",
      "type": "function"
    },
    {
      "inputs": [],
      "name": "governanceToken",
      "outputs": [
        {
          "internalType": "contract IERC20",
          "name": "",
          "type": "address"
        }
      ],
      "stateMutability": "view",
      "type": "function"
    },
    {
      "inputs": [
        {
          "internalType": "uint256",
          "name": "",
          "type": "uint256"
        },
        {
          "internalType": "address",
          "name": "",
          "type": "address"
        }
      ],
      "name": "hasVoted",
      "outputs": [
        {
          "internalType": "bool",
          "name": "",
          "type": "bool"
        }
      ],
      "stateMutability": "view",
      "type": "function"
    },
    {
      "inputs": [
        {
          "internalType": "address",
          "name": "owner",
          "type": "address"
        },
        {
          "internalType": "address",
          "name": "operator",
          "type": "address"
        }
      ],
      "name": "isApprovedForAll",
      "outputs": [
        {
          "internalType": "bool",
          "name": "",
          "type": "bool"
        }
      ],
      "stateMutability": "view",
      "type": "function"
    },
    {
      "inputs": [],
      "name": "mintNFT",
      "outputs": [],
      "stateMutability": "nonpayable",
      "type": "function"
    },
    {
      "inputs": [],
      "name": "name",
      "outputs": [
        {
          "internalType": "string",
          "name": "",
          "type": "string"
        }
      ],
      "stateMutability": "view",
      "type": "function"
    },
    {
      "inputs": [
        {
          "internalType": "uint256",
          "name": "",
          "type": "uint256"
        }
      ],
      "name": "nftProposals",
      "outputs": [
        {
          "internalType": "string",
          "name": "tokenURI",
          "type": "string"
        },
        {
          "internalType": "address",
          "name": "proposer",
          "type": "address"
        },
        {
          "internalType": "uint256",
          "name": "votes",
          "type": "uint256"
        },
        {
          "internalType": "bool",
          "name": "minted",
          "type": "bool"
        }
      ],
      "stateMutability": "view",
      "type": "function"
    },
    {
      "inputs": [
        {
          "internalType": "uint256",
          "name": "",
          "type": "uint256"
        }
      ],
      "name": "nftSales",
      "outputs": [
        {
          "internalType": "uint256",
          "name": "tokenId",
          "type": "uint256"
        },
        {
          "internalType": "address",
          "name": "owner",
          "type": "address"
        },
        {
          "internalType": "uint256",
          "name": "price",
          "type": "uint256"
        },
        {
          "internalType": "bool",
          "name": "sold",
          "type": "bool"
        }
      ],
      "stateMutability": "view",
      "type": "function"
    },
    {
      "inputs": [
        {
          "internalType": "uint256",
          "name": "tokenId",
          "type": "uint256"
        }
      ],
      "name": "ownerOf",
      "outputs": [
        {
          "internalType": "address",
          "name": "",
          "type": "address"
        }
      ],
      "stateMutability": "view",
      "type": "function"
    },
    {
      "inputs": [],
      "name": "paymentToken",
      "outputs": [
        {
          "internalType": "contract IERC20",
          "name": "",
          "type": "address"
        }
      ],
      "stateMutability": "view",
      "type": "function"
    },
    {
      "inputs": [],
      "name": "proposalCounter",
      "outputs": [
        {
          "internalType": "uint256",
          "name": "",
          "type": "uint256"
        }
      ],
      "stateMutability": "view",
      "type": "function"
    },
    {
      "inputs": [
        {
          "internalType": "string",
          "name": "_tokenURI",
          "type": "string"
        }
      ],
      "name": "proposeNFT",
      "outputs": [],
      "stateMutability": "nonpayable",
      "type": "function"
    },
    {
      "inputs": [],
      "name": "requiredVotes",
      "outputs": [
        {
          "internalType": "uint256",
          "name": "",
          "type": "uint256"
        }
      ],
      "stateMutability": "view",
      "type": "function"
    },
    {
      "inputs": [
        {
          "internalType": "address",
          "name": "from",
          "type": "address"
        },
        {
          "internalType": "address",
          "name": "to",
          "type": "address"
        },
        {
          "internalType": "uint256",
          "name": "tokenId",
          "type": "uint256"
        }
      ],
      "name": "safeTransferFrom",
      "outputs": [],
      "stateMutability": "nonpayable",
      "type": "function"
    },
    {
      "inputs": [
        {
          "internalType": "address",
          "name": "from",
          "type": "address"
        },
        {
          "internalType": "address",
          "name": "to",
          "type": "address"
        },
        {
          "internalType": "uint256",
          "name": "tokenId",
          "type": "uint256"
        },
        {
          "internalType": "bytes",
          "name": "data",
          "type": "bytes"
        }
      ],
      "name": "safeTransferFrom",
      "outputs": [],
      "stateMutability": "nonpayable",
      "type": "function"
    },
    {
      "inputs": [
        {
          "internalType": "uint256",
          "name": "tokenId",
          "type": "uint256"
        },
        {
          "internalType": "uint256",
          "name": "price",
          "type": "uint256"
        }
      ],
      "name": "sellNFT",
      "outputs": [],
      "stateMutability": "nonpayable",
      "type": "function"
    },
    {
      "inputs": [
        {
          "internalType": "address",
          "name": "operator",
          "type": "address"
        },
        {
          "internalType": "bool",
          "name": "approved",
          "type": "bool"
        }
      ],
      "name": "setApprovalForAll",
      "outputs": [],
      "stateMutability": "nonpayable",
      "type": "function"
    },
    {
      "inputs": [
        {
          "internalType": "bytes4",
          "name": "interfaceId",
          "type": "bytes4"
        }
      ],
      "name": "supportsInterface",
      "outputs": [
        {
          "internalType": "bool",
          "name": "",
          "type": "bool"
        }
      ],
      "stateMutability": "view",
      "type": "function"
    },
    {
      "inputs": [],
      "name": "symbol",
      "outputs": [
        {
          "internalType": "string",
          "name": "",
          "type": "string"
        }
      ],
      "stateMutability": "view",
      "type": "function"
    },
    {
      "inputs": [
        {
          "internalType": "uint256",
          "name": "tokenId",
          "type": "uint256"
        }
      ],
      "name": "tokenURI",
      "outputs": [
        {
          "internalType": "string",
          "name": "",
          "type": "string"
        }
      ],
      "stateMutability": "view",
      "type": "function"
    },
    {
      "inputs": [
        {
          "internalType": "address",
          "name": "from",
          "type": "address"
        },
        {
          "internalType": "address",
          "name": "to",
          "type": "address"
        },
        {
          "internalType": "uint256",
          "name": "tokenId",
          "type": "uint256"
        }
      ],
      "name": "transferFrom",
      "outputs": [],
      "stateMutability": "nonpayable",
      "type": "function"
    },
    {
      "inputs": [
        {
          "internalType": "uint256",
          "name": "proposalId",
          "type": "uint256"
        }
      ],
      "name": "voteForNFT",
      "outputs": [],
      "stateMutability": "nonpayable",
      "type": "function"
    }
  ],
  "bytecode": "0x608060405269021e19e0c9bab2400000600d5534801561001e57600080fd5b50604051613f7d380380613f7d833981810160405281019061004091906101ca565b6040518060400160405280600681526020017f44414f4e465400000000000000000000000000000000000000000000000000008152506040518060400160405280600481526020017f444e46540000000000000000000000000000000000000000000000000000000081525081600090816100bb919061045a565b5080600190816100cb919061045a565b50505081600660006101000a81548173ffffffffffffffffffffffffffffffffffffffff021916908373ffffffffffffffffffffffffffffffffffffffff16021790555080600760006101000a81548173ffffffffffffffffffffffffffffffffffffffff021916908373ffffffffffffffffffffffffffffffffffffffff16021790555060006008819055506000600c81905550505061052c565b600080fd5b600073ffffffffffffffffffffffffffffffffffffffff82169050919050565b60006101978261016c565b9050919050565b6101a78161018c565b81146101b257600080fd5b50565b6000815190506101c48161019e565b92915050565b600080604083850312156101e1576101e0610167565b5b60006101ef858286016101b5565b9250506020610200858286016101b5565b9150509250929050565b600081519050919050565b7f4e487b7100000000000000000000000000000000000000000000000000000000600052604160045260246000fd5b7f4e487b7100000000000000000000000000000000000000000000000000000000600052602260045260246000fd5b6000600282049050600182168061028b57607f821691505b60208210810361029e5761029d610244565b5b50919050565b60008190508160005260206000209050919050565b60006020601f8301049050919050565b600082821b905092915050565b6000600883026103067fffffffffffffffffffffffffffffffffffffffffffffffffffffffffffffffff826102c9565b61031086836102c9565b95508019841693508086168417925050509392505050565b6000819050919050565b6000819050919050565b600061035761035261034d84610328565b610332565b610328565b9050919050565b6000819050919050565b6103718361033c565b61038561037d8261035e565b8484546102d6565b825550505050565b600090565b61039a61038d565b6103a5818484610368565b505050565b5b818110156103c9576103be600082610392565b6001810190506103ab565b5050565b601f82111561040e576103df816102a4565b6103e8846102b9565b810160208510156103f7578190505b61040b610403856102b9565b8301826103aa565b50505b505050565b600082821c905092915050565b600061043160001984600802610413565b1980831691505092915050565b600061044a8383610420565b9150826002028217905092915050565b6104638261020a565b67ffffffffffffffff81111561047c5761047b610215565b5b6104868254610273565b6104918282856103cd565b600060209050601f8311600181146104c457600084156104b2578287015190505b6104bc858261043e565b865550610524565b601f1984166104d2866102a4565b60005b828110156104fa578489015182556001820191506020850194506020810190506104d5565b868310156105175784890151610513601f891682610420565b8355505b6001600288020188555050505b505050505050565b613a428061053b6000396000f3fe608060405234801561001057600080fd5b506004361061018e5760003560e01c8063555356ab116100de57806395d89b4111610097578063bd31a4d811610071578063bd31a4d814610485578063c87b56dd146104a3578063e985e9c5146104d3578063f96dae0a146105035761018e565b806395d89b411461042f578063a22cb4651461044d578063b88d4fde146104695761018e565b8063555356ab1461035d5780636352211e1461037b57806369aecfd7146103ab57806370a08231146103c757806389ba52c4146103f757806391a48a1e146104135761018e565b806323b872dd1161014b578063438596321161012557806343859632146102ab57806344432bfc146102db57806351ed82881461030e57806354ab95881461032a5761018e565b806323b872dd146102555780633013ce291461027157806342842e0e1461028f5761018e565b806301ffc9a71461019357806306fdde03146101c3578063081812fc146101e1578063095ea7b3146102115780630c0512e91461022d57806314f710fe1461024b575b600080fd5b6101ad60048036038101906101a89190612613565b610521565b6040516101ba919061265b565b60405180910390f35b6101cb610603565b6040516101d89190612706565b60405180910390f35b6101fb60048036038101906101f6919061275e565b610695565b60405161020891906127cc565b60405180910390f35b61022b60048036038101906102269190612813565b6106b1565b005b6102356106c7565b6040516102429190612862565b60405180910390f35b6102536106cd565b005b61026f600480360381019061026a919061287d565b6106ef565b005b6102796107f1565b604051610286919061292f565b60405180910390f35b6102a960048036038101906102a4919061287d565b610817565b005b6102c560048036038101906102c0919061294a565b610837565b6040516102d2919061265b565b60405180910390f35b6102f560048036038101906102f0919061275e565b610866565b604051610305949392919061298a565b60405180910390f35b6103286004803603810190610323919061275e565b6108c3565b005b610344600480360381019061033f919061275e565b610aee565b60405161035494939291906129cf565b60405180910390f35b610365610bd3565b6040516103729190612bb7565b60405180910390f35b6103956004803603810190610390919061275e565b610e1d565b6040516103a291906127cc565b60405180910390f35b6103c560048036038101906103c09190612d0e565b610e2f565b005b6103e160048036038101906103dc9190612d57565b610f60565b6040516103ee9190612862565b60405180910390f35b610411600480360381019061040c919061275e565b61101a565b005b61042d60048036038101906104289190612d84565b611369565b005b6104376114fd565b6040516104449190612706565b60405180910390f35b61046760048036038101906104629190612df0565b61158f565b005b610483600480360381019061047e9190612ed1565b6115a5565b005b61048d6115ca565b60405161049a9190612862565b60405180910390f35b6104bd60048036038101906104b8919061275e565b6115d0565b6040516104ca9190612706565b60405180910390f35b6104ed60048036038101906104e89190612f54565b611639565b6040516104fa919061265b565b60405180910390f35b61050b6116cd565b604051610518919061292f565b60405180910390f35b60007f80ac58cd000000000000000000000000000000000000000000000000000000007bffffffffffffffffffffffffffffffffffffffffffffffffffffffff1916827bffffffffffffffffffffffffffffffffffffffffffffffffffffffff191614806105ec57507f5b5e139f000000000000000000000000000000000000000000000000000000007bffffffffffffffffffffffffffffffffffffffffffffffffffffffff1916827bffffffffffffffffffffffffffffffffffffffffffffffffffffffff1916145b806105fc57506105fb826116f3565b5b9050919050565b60606000805461061290612fc3565b80601f016020809104026020016040519081016040528092919081815260200182805461063e90612fc3565b801561068b5780601f106106605761010080835404028352916020019161068b565b820191906000526020600020905b81548152906001019060200180831161066e57829003601f168201915b5050505050905090565b60006106a08261175d565b506106aa826117e5565b9050919050565b6106c382826106be611822565b61182a565b5050565b600c5481565b6106ed33600860008154809291906106e490613023565b9190505561183c565b565b600073ffffffffffffffffffffffffffffffffffffffff168273ffffffffffffffffffffffffffffffffffffffff16036107615760006040517f64a0ae9200000000000000000000000000000000000000000000000000000000815260040161075891906127cc565b60405180910390fd5b60006107758383610770611822565b611935565b90508373ffffffffffffffffffffffffffffffffffffffff168173ffffffffffffffffffffffffffffffffffffffff16146107eb578382826040517f64283d7b0000000000000000000000000000000000000000000000000000000081526004016107e29392919061306b565b60405180910390fd5b50505050565b600760009054906101000a900473ffffffffffffffffffffffffffffffffffffffff1681565b610832838383604051806020016040528060008152506115a5565b505050565b600a6020528160005260406000206020528060005260406000206000915091509054906101000a900460ff1681565b600b6020528060005260406000206000915090508060000154908060010160009054906101000a900473ffffffffffffffffffffffffffffffffffffffff16908060020154908060030160009054906101000a900460ff16905084565b6000600b600083815260200190815260200160002090508060030160009054906101000a900460ff161561092c576040517f08c379a0000000000000000000000000000000000000000000000000000000008152600401610923906130ee565b60405180910390fd5b6000816002015411610973576040517f08c379a000000000000000000000000000000000000000000000000000000000815260040161096a9061315a565b60405180910390fd5b600760009054906101000a900473ffffffffffffffffffffffffffffffffffffffff1673ffffffffffffffffffffffffffffffffffffffff1663a9059cbb8260010160009054906101000a900473ffffffffffffffffffffffffffffffffffffffff1683600201546040518363ffffffff1660e01b81526004016109f892919061317a565b6020604051808303816000875af1158015610a17573d6000803e3d6000fd5b505050506040513d601f19601f82011682018060405250810190610a3b91906131b8565b610a7a576040517f08c379a0000000000000000000000000000000000000000000000000000000008152600401610a7190613231565b60405180910390fd5b60018160030160006101000a81548160ff0219169083151502179055503373ffffffffffffffffffffffffffffffffffffffff16827f6329e40c0365262ebbff5ca819385c2b9713dcaa050ed07866d72c441395699a8360020154604051610ae29190612862565b60405180910390a35050565b6009602052806000526040600020600091509050806000018054610b1190612fc3565b80601f0160208091040260200160405190810160405280929190818152602001828054610b3d90612fc3565b8015610b8a5780601f10610b5f57610100808354040283529160200191610b8a565b820191906000526020600020905b815481529060010190602001808311610b6d57829003601f168201915b5050505050908060010160009054906101000a900473ffffffffffffffffffffffffffffffffffffffff16908060020154908060030160009054906101000a900460ff16905084565b60606000600c5467ffffffffffffffff811115610bf357610bf2612be3565b5b604051908082528060200260200182016040528015610c2c57816020015b610c19612567565b815260200190600190039081610c115790505b50905060005b600c54811015610e1557600073ffffffffffffffffffffffffffffffffffffffff1660096000600184610c659190613251565b815260200190815260200160002060010160009054906101000a900473ffffffffffffffffffffffffffffffffffffffff1673ffffffffffffffffffffffffffffffffffffffff1614610e085760096000600183610cc39190613251565b8152602001908152602001600020604051806080016040529081600082018054610cec90612fc3565b80601f0160208091040260200160405190810160405280929190818152602001828054610d1890612fc3565b8015610d655780601f10610d3a57610100808354040283529160200191610d65565b820191906000526020600020905b815481529060010190602001808311610d4857829003601f168201915b505050505081526020016001820160009054906101000a900473ffffffffffffffffffffffffffffffffffffffff1673ffffffffffffffffffffffffffffffffffffffff1673ffffffffffffffffffffffffffffffffffffffff168152602001600282015481526020016003820160009054906101000a900460ff161515151581525050828281518110610dfc57610dfb613285565b5b60200260200101819052505b8080600101915050610c32565b508091505090565b6000610e288261175d565b9050919050565b600c6000815480929190610e4290613023565b919050555060405180608001604052808281526020013373ffffffffffffffffffffffffffffffffffffffff168152602001600081526020016000151581525060096000600c5481526020019081526020016000206000820151816000019081610eac9190613456565b5060208201518160010160006101000a81548173ffffffffffffffffffffffffffffffffffffffff021916908373ffffffffffffffffffffffffffffffffffffffff1602179055506040820151816002015560608201518160030160006101000a81548160ff021916908315150217905550905050600c547f66fde1e5134898d49de0f081d598cf7d8fba2432595667ac3cbef6dd60dc01158233604051610f55929190613528565b60405180910390a250565b60008073ffffffffffffffffffffffffffffffffffffffff168273ffffffffffffffffffffffffffffffffffffffff1603610fd35760006040517f89c62b64000000000000000000000000000000000000000000000000000000008152600401610fca91906127cc565b60405180910390fd5b600360008373ffffffffffffffffffffffffffffffffffffffff1673ffffffffffffffffffffffffffffffffffffffff168152602001908152602001600020549050919050565b600073ffffffffffffffffffffffffffffffffffffffff166009600083815260200190815260200160002060010160009054906101000a900473ffffffffffffffffffffffffffffffffffffffff1673ffffffffffffffffffffffffffffffffffffffff16036110bf576040517f08c379a00000000000000000000000000000000000000000000000000000000081526004016110b6906135a4565b60405180910390fd5b600a600082815260200190815260200160002060003373ffffffffffffffffffffffffffffffffffffffff1673ffffffffffffffffffffffffffffffffffffffff16815260200190815260200160002060009054906101000a900460ff161561115d576040517f08c379a000000000000000000000000000000000000000000000000000000000815260040161115490613610565b60405180910390fd5b6000600660009054906101000a900473ffffffffffffffffffffffffffffffffffffffff1673ffffffffffffffffffffffffffffffffffffffff166370a08231336040518263ffffffff1660e01b81526004016111ba91906127cc565b602060405180830381865afa1580156111d7573d6000803e3d6000fd5b505050506040513d601f19601f820116820180604052508101906111fb9190613645565b905060008111611240576040517f08c379a0000000000000000000000000000000000000000000000000000000008152600401611237906136be565b60405180910390fd5b806009600084815260200190815260200160002060020160008282546112669190613251565b925050819055506001600a600084815260200190815260200160002060003373ffffffffffffffffffffffffffffffffffffffff1673ffffffffffffffffffffffffffffffffffffffff16815260200190815260200160002060006101000a81548160ff0219169083151502179055503373ffffffffffffffffffffffffffffffffffffffff16827f3ae89ec44d6750209e1164a2659a766e3cfe3476e908a19cb5e928974ef5e4ec6009600086815260200190815260200160002060000184604051611334929190613762565b60405180910390a3600d546009600084815260200190815260200160002060020154106113655761136482611b4f565b5b5050565b3373ffffffffffffffffffffffffffffffffffffffff1661138983610e1d565b73ffffffffffffffffffffffffffffffffffffffff16146113df576040517f08c379a00000000000000000000000000000000000000000000000000000000081526004016113d6906137de565b60405180910390fd5b60405180608001604052808381526020013373ffffffffffffffffffffffffffffffffffffffff16815260200182815260200160001515815250600b60008481526020019081526020016000206000820151816000015560208201518160010160006101000a81548173ffffffffffffffffffffffffffffffffffffffff021916908373ffffffffffffffffffffffffffffffffffffffff1602179055506040820151816002015560608201518160030160006101000a81548160ff0219169083151502179055509050503373ffffffffffffffffffffffffffffffffffffffff16827f14a255b52c2c9ce6f941bf319d36b2ea85f244c2d15ce1ed0e9a68ee8bf174d8836040516114f19190612862565b60405180910390a35050565b60606001805461150c90612fc3565b80601f016020809104026020016040519081016040528092919081815260200182805461153890612fc3565b80156115855780601f1061155a57610100808354040283529160200191611585565b820191906000526020600020905b81548152906001019060200180831161156857829003601f168201915b5050505050905090565b6115a161159a611822565b8383611c88565b5050565b6115b08484846106ef565b6115c46115bb611822565b85858585611df7565b50505050565b600d5481565b60606115db8261175d565b5060006115e6611fa8565b905060008151116116065760405180602001604052806000815250611631565b8061161084611fbf565b60405160200161162192919061383a565b6040516020818303038152906040525b915050919050565b6000600560008473ffffffffffffffffffffffffffffffffffffffff1673ffffffffffffffffffffffffffffffffffffffff16815260200190815260200160002060008373ffffffffffffffffffffffffffffffffffffffff1673ffffffffffffffffffffffffffffffffffffffff16815260200190815260200160002060009054906101000a900460ff16905092915050565b600660009054906101000a900473ffffffffffffffffffffffffffffffffffffffff1681565b60007f01ffc9a7000000000000000000000000000000000000000000000000000000007bffffffffffffffffffffffffffffffffffffffffffffffffffffffff1916827bffffffffffffffffffffffffffffffffffffffffffffffffffffffff1916149050919050565b6000806117698361208d565b9050600073ffffffffffffffffffffffffffffffffffffffff168173ffffffffffffffffffffffffffffffffffffffff16036117dc57826040517f7e2732890000000000000000000000000000000000000000000000000000000081526004016117d39190612862565b60405180910390fd5b80915050919050565b60006004600083815260200190815260200160002060009054906101000a900473ffffffffffffffffffffffffffffffffffffffff169050919050565b600033905090565b61183783838360016120ca565b505050565b600073ffffffffffffffffffffffffffffffffffffffff168273ffffffffffffffffffffffffffffffffffffffff16036118ae5760006040517f64a0ae920000000000000000000000000000000000000000000000000000000081526004016118a591906127cc565b60405180910390fd5b60006118bc83836000611935565b9050600073ffffffffffffffffffffffffffffffffffffffff168173ffffffffffffffffffffffffffffffffffffffff16146119305760006040517f73c6ac6e00000000000000000000000000000000000000000000000000000000815260040161192791906127cc565b60405180910390fd5b505050565b6000806119418461208d565b9050600073ffffffffffffffffffffffffffffffffffffffff168373ffffffffffffffffffffffffffffffffffffffff16146119835761198281848661228f565b5b600073ffffffffffffffffffffffffffffffffffffffff168173ffffffffffffffffffffffffffffffffffffffff1614611a14576119c56000856000806120ca565b6001600360008373ffffffffffffffffffffffffffffffffffffffff1673ffffffffffffffffffffffffffffffffffffffff168152602001908152602001600020600082825403925050819055505b600073ffffffffffffffffffffffffffffffffffffffff168573ffffffffffffffffffffffffffffffffffffffff1614611a97576001600360008773ffffffffffffffffffffffffffffffffffffffff1673ffffffffffffffffffffffffffffffffffffffff168152602001908152602001600020600082825401925050819055505b846002600086815260200190815260200160002060006101000a81548173ffffffffffffffffffffffffffffffffffffffff021916908373ffffffffffffffffffffffffffffffffffffffff160217905550838573ffffffffffffffffffffffffffffffffffffffff168273ffffffffffffffffffffffffffffffffffffffff167fddf252ad1be2c89b69c2b068fc378daa952ba7f163c4a11628f55a4df523b3ef60405160405180910390a4809150509392505050565b60006009600083815260200190815260200160002090508060030160009054906101000a900460ff1615611bb8576040517f08c379a0000000000000000000000000000000000000000000000000000000008152600401611baf906138aa565b60405180910390fd5b60086000815480929190611bcb90613023565b919050555060006008549050611c058260010160009054906101000a900473ffffffffffffffffffffffffffffffffffffffff168261183c565b60018260030160006101000a81548160ff021916908315150217905550807f411b345259a1495602cee098e5f501eb3412e0701c10b173ecd8ba7b585974a9836000018460010160009054906101000a900473ffffffffffffffffffffffffffffffffffffffff16604051611c7b9291906138ca565b60405180910390a2505050565b600073ffffffffffffffffffffffffffffffffffffffff168273ffffffffffffffffffffffffffffffffffffffff1603611cf957816040517f5b08ba18000000000000000000000000000000000000000000000000000000008152600401611cf091906127cc565b60405180910390fd5b80600560008573ffffffffffffffffffffffffffffffffffffffff1673ffffffffffffffffffffffffffffffffffffffff16815260200190815260200160002060008473ffffffffffffffffffffffffffffffffffffffff1673ffffffffffffffffffffffffffffffffffffffff16815260200190815260200160002060006101000a81548160ff0219169083151502179055508173ffffffffffffffffffffffffffffffffffffffff168373ffffffffffffffffffffffffffffffffffffffff167f17307eab39ab6107e8899845ad3d59bd9653f200f220920489ca2b5937696c3183604051611dea919061265b565b60405180910390a3505050565b60008373ffffffffffffffffffffffffffffffffffffffff163b1115611fa1578273ffffffffffffffffffffffffffffffffffffffff1663150b7a02868685856040518563ffffffff1660e01b8152600401611e56949392919061394f565b6020604051808303816000875af1925050508015611e9257506040513d601f19601f82011682018060405250810190611e8f91906139b0565b60015b611f16573d8060008114611ec2576040519150601f19603f3d011682016040523d82523d6000602084013e611ec7565b606091505b506000815103611f0e57836040517f64a0ae92000000000000000000000000000000000000000000000000000000008152600401611f0591906127cc565b60405180910390fd5b805181602001fd5b63150b7a0260e01b7bffffffffffffffffffffffffffffffffffffffffffffffffffffffff1916817bffffffffffffffffffffffffffffffffffffffffffffffffffffffff191614611f9f57836040517f64a0ae92000000000000000000000000000000000000000000000000000000008152600401611f9691906127cc565b60405180910390fd5b505b5050505050565b606060405180602001604052806000815250905090565b606060006001611fce84612353565b01905060008167ffffffffffffffff811115611fed57611fec612be3565b5b6040519080825280601f01601f19166020018201604052801561201f5781602001600182028036833780820191505090505b509050600082602001820190505b600115612082578080600190039150507f3031323334353637383961626364656600000000000000000000000000000000600a86061a8153600a8581612076576120756139dd565b5b0494506000850361202d575b819350505050919050565b60006002600083815260200190815260200160002060009054906101000a900473ffffffffffffffffffffffffffffffffffffffff169050919050565b80806121035750600073ffffffffffffffffffffffffffffffffffffffff168273ffffffffffffffffffffffffffffffffffffffff1614155b156122375760006121138461175d565b9050600073ffffffffffffffffffffffffffffffffffffffff168373ffffffffffffffffffffffffffffffffffffffff161415801561217e57508273ffffffffffffffffffffffffffffffffffffffff168173ffffffffffffffffffffffffffffffffffffffff1614155b8015612191575061218f8184611639565b155b156121d357826040517fa9fbf51f0000000000000000000000000000000000000000000000000000000081526004016121ca91906127cc565b60405180910390fd5b811561223557838573ffffffffffffffffffffffffffffffffffffffff168273ffffffffffffffffffffffffffffffffffffffff167f8c5be1e5ebec7d5bd14f71427d1e84f3dd0314c0f7b2291e5b200ac8c7c3b92560405160405180910390a45b505b836004600085815260200190815260200160002060006101000a81548173ffffffffffffffffffffffffffffffffffffffff021916908373ffffffffffffffffffffffffffffffffffffffff16021790555050505050565b61229a8383836124a6565b61234e57600073ffffffffffffffffffffffffffffffffffffffff168373ffffffffffffffffffffffffffffffffffffffff160361230f57806040517f7e2732890000000000000000000000000000000000000000000000000000000081526004016123069190612862565b60405180910390fd5b81816040517f177e802f00000000000000000000000000000000000000000000000000000000815260040161234592919061317a565b60405180910390fd5b505050565b600080600090507a184f03e93ff9f4daa797ed6e38ed64bf6a1f01000000000000000083106123b1577a184f03e93ff9f4daa797ed6e38ed64bf6a1f01000000000000000083816123a7576123a66139dd565b5b0492506040810190505b6d04ee2d6d415b85acef810000000083106123ee576d04ee2d6d415b85acef810000000083816123e4576123e36139dd565b5b0492506020810190505b662386f26fc10000831061241d57662386f26fc100008381612413576124126139dd565b5b0492506010810190505b6305f5e1008310612446576305f5e100838161243c5761243b6139dd565b5b0492506008810190505b612710831061246b576127108381612461576124606139dd565b5b0492506004810190505b6064831061248e5760648381612484576124836139dd565b5b0492506002810190505b600a831061249d576001810190505b80915050919050565b60008073ffffffffffffffffffffffffffffffffffffffff168373ffffffffffffffffffffffffffffffffffffffff161415801561255e57508273ffffffffffffffffffffffffffffffffffffffff168473ffffffffffffffffffffffffffffffffffffffff16148061251f575061251e8484611639565b5b8061255d57508273ffffffffffffffffffffffffffffffffffffffff16612545836117e5565b73ffffffffffffffffffffffffffffffffffffffff16145b5b90509392505050565b604051806080016040528060608152602001600073ffffffffffffffffffffffffffffffffffffffff168152602001600081526020016000151581525090565b6000604051905090565b600080fd5b600080fd5b60007fffffffff0000000000000000000000000000000000000000000000000000000082169050919050565b6125f0816125bb565b81146125fb57600080fd5b50565b60008135905061260d816125e7565b92915050565b600060208284031215612629576126286125b1565b5b6000612637848285016125fe565b91505092915050565b60008115159050919050565b61265581612640565b82525050565b6000602082019050612670600083018461264c565b92915050565b600081519050919050565b600082825260208201905092915050565b60005b838110156126b0578082015181840152602081019050612695565b60008484015250505050565b6000601f19601f8301169050919050565b60006126d882612676565b6126e28185612681565b93506126f2818560208601612692565b6126fb816126bc565b840191505092915050565b6000602082019050818103600083015261272081846126cd565b905092915050565b6000819050919050565b61273b81612728565b811461274657600080fd5b50565b60008135905061275881612732565b92915050565b600060208284031215612774576127736125b1565b5b600061278284828501612749565b91505092915050565b600073ffffffffffffffffffffffffffffffffffffffff82169050919050565b60006127b68261278b565b9050919050565b6127c6816127ab565b82525050565b60006020820190506127e160008301846127bd565b92915050565b6127f0816127ab565b81146127fb57600080fd5b50565b60008135905061280d816127e7565b92915050565b6000806040838503121561282a576128296125b1565b5b6000612838858286016127fe565b925050602061284985828601612749565b9150509250929050565b61285c81612728565b82525050565b60006020820190506128776000830184612853565b92915050565b600080600060608486031215612896576128956125b1565b5b60006128a4868287016127fe565b93505060206128b5868287016127fe565b92505060406128c686828701612749565b9150509250925092565b6000819050919050565b60006128f56128f06128eb8461278b565b6128d0565b61278b565b9050919050565b6000612907826128da565b9050919050565b6000612919826128fc565b9050919050565b6129298161290e565b82525050565b60006020820190506129446000830184612920565b92915050565b60008060408385031215612961576129606125b1565b5b600061296f85828601612749565b9250506020612980858286016127fe565b9150509250929050565b600060808201905061299f6000830187612853565b6129ac60208301866127bd565b6129b96040830185612853565b6129c6606083018461264c565b95945050505050565b600060808201905081810360008301526129e981876126cd565b90506129f860208301866127bd565b612a056040830185612853565b612a12606083018461264c565b95945050505050565b600081519050919050565b600082825260208201905092915050565b6000819050602082019050919050565b600082825260208201905092915050565b6000612a6382612676565b612a6d8185612a47565b9350612a7d818560208601612692565b612a86816126bc565b840191505092915050565b612a9a816127ab565b82525050565b612aa981612728565b82525050565b612ab881612640565b82525050565b60006080830160008301518482036000860152612adb8282612a58565b9150506020830151612af06020860182612a91565b506040830151612b036040860182612aa0565b506060830151612b166060860182612aaf565b508091505092915050565b6000612b2d8383612abe565b905092915050565b6000602082019050919050565b6000612b4d82612a1b565b612b578185612a26565b935083602082028501612b6985612a37565b8060005b85811015612ba55784840389528151612b868582612b21565b9450612b9183612b35565b925060208a01995050600181019050612b6d565b50829750879550505050505092915050565b60006020820190508181036000830152612bd18184612b42565b905092915050565b600080fd5b600080fd5b7f4e487b7100000000000000000000000000000000000000000000000000000000600052604160045260246000fd5b612c1b826126bc565b810181811067ffffffffffffffff82111715612c3a57612c39612be3565b5b80604052505050565b6000612c4d6125a7565b9050612c598282612c12565b919050565b600067ffffffffffffffff821115612c7957612c78612be3565b5b612c82826126bc565b9050602081019050919050565b82818337600083830152505050565b6000612cb1612cac84612c5e565b612c43565b905082815260208101848484011115612ccd57612ccc612bde565b5b612cd8848285612c8f565b509392505050565b600082601f830112612cf557612cf4612bd9565b5b8135612d05848260208601612c9e565b91505092915050565b600060208284031215612d2457612d236125b1565b5b600082013567ffffffffffffffff811115612d4257612d416125b6565b5b612d4e84828501612ce0565b91505092915050565b600060208284031215612d6d57612d6c6125b1565b5b6000612d7b848285016127fe565b91505092915050565b60008060408385031215612d9b57612d9a6125b1565b5b6000612da985828601612749565b9250506020612dba85828601612749565b9150509250929050565b612dcd81612640565b8114612dd857600080fd5b50565b600081359050612dea81612dc4565b92915050565b60008060408385031215612e0757612e066125b1565b5b6000612e15858286016127fe565b9250506020612e2685828601612ddb565b9150509250929050565b600067ffffffffffffffff821115612e4b57612e4a612be3565b5b612e54826126bc565b9050602081019050919050565b6000612e74612e6f84612e30565b612c43565b905082815260208101848484011115612e9057612e8f612bde565b5b612e9b848285612c8f565b509392505050565b600082601f830112612eb857612eb7612bd9565b5b8135612ec8848260208601612e61565b91505092915050565b60008060008060808587031215612eeb57612eea6125b1565b5b6000612ef9878288016127fe565b9450506020612f0a878288016127fe565b9350506040612f1b87828801612749565b925050606085013567ffffffffffffffff811115612f3c57612f3b6125b6565b5b612f4887828801612ea3565b91505092959194509250565b60008060408385031215612f6b57612f6a6125b1565b5b6000612f79858286016127fe565b9250506020612f8a858286016127fe565b9150509250929050565b7f4e487b7100000000000000000000000000000000000000000000000000000000600052602260045260246000fd5b60006002820490506001821680612fdb57607f821691505b602082108103612fee57612fed612f94565b5b50919050565b7f4e487b7100000000000000000000000000000000000000000000000000000000600052601160045260246000fd5b600061302e82612728565b91507fffffffffffffffffffffffffffffffffffffffffffffffffffffffffffffffff82036130605761305f612ff4565b5b600182019050919050565b600060608201905061308060008301866127bd565b61308d6020830185612853565b61309a60408301846127bd565b949350505050565b7f4e465420616c726561647920736f6c6400000000000000000000000000000000600082015250565b60006130d8601083612681565b91506130e3826130a2565b602082019050919050565b60006020820190508181036000830152613107816130cb565b9050919050565b7f4e4654206e6f7420666f722073616c6500000000000000000000000000000000600082015250565b6000613144601083612681565b915061314f8261310e565b602082019050919050565b6000602082019050818103600083015261317381613137565b9050919050565b600060408201905061318f60008301856127bd565b61319c6020830184612853565b9392505050565b6000815190506131b281612dc4565b92915050565b6000602082840312156131ce576131cd6125b1565b5b60006131dc848285016131a3565b91505092915050565b7f5061796d656e74206661696c6564000000000000000000000000000000000000600082015250565b600061321b600e83612681565b9150613226826131e5565b602082019050919050565b6000602082019050818103600083015261324a8161320e565b9050919050565b600061325c82612728565b915061326783612728565b925082820190508082111561327f5761327e612ff4565b5b92915050565b7f4e487b7100000000000000000000000000000000000000000000000000000000600052603260045260246000fd5b60008190508160005260206000209050919050565b60006020601f8301049050919050565b600082821b905092915050565b6000600883026133167fffffffffffffffffffffffffffffffffffffffffffffffffffffffffffffffff826132d9565b61332086836132d9565b95508019841693508086168417925050509392505050565b600061335361334e61334984612728565b6128d0565b612728565b9050919050565b6000819050919050565b61336d83613338565b6133816133798261335a565b8484546132e6565b825550505050565b600090565b613396613389565b6133a1818484613364565b505050565b5b818110156133c5576133ba60008261338e565b6001810190506133a7565b5050565b601f82111561340a576133db816132b4565b6133e4846132c9565b810160208510156133f3578190505b6134076133ff856132c9565b8301826133a6565b50505b505050565b600082821c905092915050565b600061342d6000198460080261340f565b1980831691505092915050565b6000613446838361341c565b9150826002028217905092915050565b61345f82612676565b67ffffffffffffffff81111561347857613477612be3565b5b6134828254612fc3565b61348d8282856133c9565b600060209050601f8311600181146134c057600084156134ae578287015190505b6134b8858261343a565b865550613520565b601f1984166134ce866132b4565b60005b828110156134f6578489015182556001820191506020850194506020810190506134d1565b86831015613513578489015161350f601f89168261341c565b8355505b6001600288020188555050505b505050505050565b6000604082019050818103600083015261354281856126cd565b905061355160208301846127bd565b9392505050565b7f50726f706f73616c20646f6573206e6f74206578697374000000000000000000600082015250565b600061358e601783612681565b915061359982613558565b602082019050919050565b600060208201905081810360008301526135bd81613581565b9050919050565b7f416c726561647920766f74656400000000000000000000000000000000000000600082015250565b60006135fa600d83612681565b9150613605826135c4565b602082019050919050565b60006020820190508181036000830152613629816135ed565b9050919050565b60008151905061363f81612732565b92915050565b60006020828403121561365b5761365a6125b1565b5b600061366984828501613630565b91505092915050565b7f4e6f20676f7665726e616e636520746f6b656e73000000000000000000000000600082015250565b60006136a8601483612681565b91506136b382613672565b602082019050919050565b600060208201905081810360008301526136d78161369b565b9050919050565b600081546136eb81612fc3565b6136f58186612681565b94506001821660008114613710576001811461372657613759565b60ff198316865281151560200286019350613759565b61372f856132b4565b60005b8381101561375157815481890152600182019150602081019050613732565b808801955050505b50505092915050565b6000604082019050818103600083015261377c81856136de565b905061378b6020830184612853565b9392505050565b7f4e6f7420746865206f776e657200000000000000000000000000000000000000600082015250565b60006137c8600d83612681565b91506137d382613792565b602082019050919050565b600060208201905081810360008301526137f7816137bb565b9050919050565b600081905092915050565b600061381482612676565b61381e81856137fe565b935061382e818560208601612692565b80840191505092915050565b60006138468285613809565b91506138528284613809565b91508190509392505050565b7f416c7265616479206d696e746564000000000000000000000000000000000000600082015250565b6000613894600e83612681565b915061389f8261385e565b602082019050919050565b600060208201905081810360008301526138c381613887565b9050919050565b600060408201905081810360008301526138e481856136de565b90506138f360208301846127bd565b9392505050565b600081519050919050565b600082825260208201905092915050565b6000613921826138fa565b61392b8185613905565b935061393b818560208601612692565b613944816126bc565b840191505092915050565b600060808201905061396460008301876127bd565b61397160208301866127bd565b61397e6040830185612853565b81810360608301526139908184613916565b905095945050505050565b6000815190506139aa816125e7565b92915050565b6000602082840312156139c6576139c56125b1565b5b60006139d48482850161399b565b91505092915050565b7f4e487b7100000000000000000000000000000000000000000000000000000000600052601260045260246000fdfea2646970667358221220c7fb81e6424312157738003ce184b085e7f45d37d3ce9759f0f884db031111bf64736f6c634300081d0033",
  "linkReferences": {},
  "deployedLinkReferences": {}
}